:1000000000100020C92E000063E8000063E8000033
:1000100063E8000063E8000063E8000063E80000B4
:1000200063E8000063E8000063E8000063E80000A4
:1000300063E80000B4F20100877F0000992400000B
:1000400063E8000063E80000C13A000063E80000D4
:1000500063E8000063E8000063E8000063E8000074
:1000600063E8000063E8000063E8000063E8000064
:1000700063E8000063E8000063E8000063E8000054
:1000800063E8000063E8000063E8000063E8000044
:1000900063E8000063E8000063E8000063E8000034
:1000A00063E8000063E8000063E8000063E8000024
:1000B00063E8000063E8000063E80000259C00009E
:1000C00063E8000063E8000063E8000063E8000004
:1000D00063E8000063E8000063E800007D2E000094
:1000E000B9E7000063E8000063E8000063E800008F
:1000F00063E8000063E8000063E8000063E80000D4
:1001000063E8000063E8000063E8000063E80000C3
:1001100063E8000063E8000063E8000063E80000B3
:1001200063E8000063E8000063E8000063E80000A3
:1001300063E8000063E8000063E8000063E8000093
:1001400063E8000063E8000063E8000063E8000083
:10015000000000000000000000000000000000009F
:1001600001F0FF01102A2BDB10F0070F08D010F868
:10017000013B013A8B422DD010F0070F42B3F6D16C
:10018000F0B441EA012141EA014122F007047FF085
:1001900000070023F0E80256083C85EA010586EADC
:1001A000010685FA47F5A3FA87F586FA47F6A5FA18
:1001B00087F68EB9EED1F0BC01F0FF0102F0070224
:1001C00032B110F8013B013A83EA010313B1F8D1CF
:1001D0000020704701387047002D06BF35460338B0
:1001E000073815F0010F07D1013015F4807F02BFE9
:1001F000013015F4C03F0130F0BC0138704700BF3A
:100200002DE9F04F2DED048B456A93B00446DDF8DF
:100210008C8016461F4692469B4675B910200AF000
:100220009BF80246606220B9A94BEA21A9480BF06D
:1002300019F9C0E901550560C560636A196851B1D3
:100240005A684A60012393408B6020460BF052FBB2
:10025000636A00221A603B1EAABF002323F0004BF2
:10026000C8F800309C4BBCBF0122C8F8002033EA1C
:100270000B031BD1229A42F20F731360CBF31303CB
:10028000334300F09685249B63B9944B22E0944B52
:1002900004930833249A1360049813B0BDEC048BC4
:1002A000BDE8F08F8D4B04930333F3E70022002366
:1002B000504659460CF00EFB4BEC19AB804658B13A
:1002C000229A01231360249B002B00F06F85854840
:1002D0001860431E0493DFE710AB019311AB00934A
:1002E00052465B4620460BF081FDCBF30A5508EEE3
:1002F000100A002D00F0848019EE903AC3F3130326
:1003000043F07F57564647F44017A5F2FF35CDF826
:100310003880754B00223046394609F0ABFC66A3A5
:10032000D3E900230CF06EF865A3D3E9002309F0AC
:10033000A3FC064628460F4609F0EAFD62A3D3E96E
:1003400000230CF05FF802460B463046394609F0B0
:1003500093FC06460F460CF005FB00220390002399
:10036000304639460CF0C0FA50B1039809F0D0FD80
:1003700032463B460CF0AEFA10B9039B013B0393A7
:10038000039B162B5AD8039A584B03EBC203D3E9AD
:10039000002351EC190B0CF0A7FA002850D0039B56
:1003A000013B039300230C93109B5D1B6B1E089372
:1003B00045BFC5F101030793002300234CBF0893F9
:1003C0000793039B002B3DDB089B039A0B9213447E
:1003D000089300230993209B092B00F28B80052BA7
:1003E000C4BF043B2093209BA3F10203CCBF002594
:1003F0000125032B00F28980DFE803F02D3A3859FC
:10040000DDE910531D4405F23243202BC1BFC3F177
:10041000400305F212400BFA03F326FA00F0DABFAC
:10042000C3F1200306FA03F0184309F061FD01232C
:100430000646A1F1F877013D0E936AE70123B2E782
:100440000C90B1E7079B039A9B1A079353420993B9
:1004500000230B93BFE700230A93219B002B57DC5B
:100460000123CDE905331A4621920CE00123F3E77D
:100470000023219A0A93039B134405930133012B14
:100480000693B8BF0123606A00224260042202F191
:1004900014069E4241683FD920460BF0EBF90490C8
:1004A00000283DD1124B02464FF4D571BEE6012320
:1004B000DFE700BFAFF3008061436F63A787D23FE0
:1004C000B3C8608B288AC63FFB799F501344D33F43
:1004D0008C0102006C0202000000F07F6802020042
:1004E0005F020200690102000000F83F08040200F8
:1004F000EA0202000125002320930A954FF0FF3302
:10050000CDE9053300221223AEE701230A93F5E774
:10051000219BCDE90533B6E7013141605200B6E7D2
:10052000636A049A1A60069B0E2B00F29D80002DD0
:1005300000F09A80039B002B32DDB74A03F00F03D3
:1005400002EBC303D3E90089039BD8054FEA2317C5
:1005500016D5B24B51EC190BD3E908230CF07CF8FB
:1005600007F00F0782468B460325AC4E57B942462B
:100570004B46504659460CF06FF882468B4628E0B1
:100580000225F2E7F90708D540464946D6E9002397
:100590000BF038FF0135804689467F100836E5E7C5
:1005A00000F09B80039B9D4F5E429B4B06F00F0229
:1005B00003EBC203D3E9002351EC190B0BF022FF2C
:1005C000361182468B4600230225002E7AD1002B5D
:1005D000D3D10C9B002B00F08280914B002250461F
:1005E00059460CF081F9002879D0069B002B76D073
:1005F000059B002B36DD039B504659465F1E0022AB
:10060000884B0BF0FFFE059E82468B46013528463F
:1006100009F07EFC52465B460BF0F4FE824B002252
:1006200009F02AFBD046D9468246A1F1507B002E24
:1006300058D17E4B00224046494609F01BFB5246EA
:100640005B46804689460CF06DF9002840F09582A3
:1006500052460BF10043404649460CF045F900284C
:1006600040F089825BEC19AB119B002BC0F24881F2
:10067000039A0E2A00F34481674B03EBC203D3E9CC
:100680000089219B002B80F2D580069B002B00F374
:10069000D18040F06F82654B0022404649460BF006
:1006A000B1FE52465B460CF033F9069E37460028F1
:1006B00040F04582049D312305F8013B039B013343
:1006C000039340E2F20705D5D7E900230BF09AFE29
:1006D000013501237610083777E7022579E7039F74
:1006E000069E94E704994C4B31440D910A9903EB13
:1006F000C60353E90223002943D04D4900200BF0E3
:10070000ABFF52465B4609F0B5FA049D82468B4624
:10071000494640460CF026F9064609F0F9FB024628
:100720000B464046494609F0A5FA303605F8016BFC
:1007300052465B46804689460CF0D6F8002863D1C5
:1007400042464B463649002009F094FA52465B4631
:100750000CF0CAF8002840F0B5800D9B9D4281D076
:10076000304B0022504659460BF04CFE2D4B824632
:100770008B464046494600220BF044FE804689469F
:10078000C6E7504659460BF03DFE0D9B049D0F9366
:1007900082468B46494640460CF0E4F8064609F08E
:1007A000B7FB303602460B464046494609F062FA2E
:1007B00005F8016B0D9B9D42804689464FF0000273
:1007C00024D11B4B5046594609F056FA02460B46B7
:1007D000404649460CF0A6F8002873D152465B46C5
:1007E0001349002009F046FA02460B4640464946A6
:1007F0000CF07AF800283FF435AF0F9D6B1E0F9375
:1008000015F8013C302BF8D0039749E0054B0BF06D
:10081000F9FD80468946BDE708040200E0030200B6
:100820000000F03F0000244000001C400000144085
:100830000000E03F049D56465F4642464B46304628
:1008400039460BF009FF0CF08DF8824609F060FB89
:1008500042464B460BF0D6FD02460B463046394623
:100860000AF1300609F006FA05F8016B049E069FAE
:10087000AE1BB74202460B4635D109F0FDF94246A0
:100880004B4606460F460CF04DF8D0B942464B4653
:10089000304639460CF01EF810B11AF0010F10D195
:1008A000204618EE101A0BF025F8002303982B7041
:1008B000229B01301860249B002B3FF4EDAC1D609F
:1008C000EAE4039F2B461D4613F8012D392A06D171
:1008D000049A9A42F7D10499302201370A701A78A3
:1008E00001321A7090E7A64B00220BF08BFD00221C
:1008F000002306460F460BF0EDFF00289DD0CFE702
:100900000A9A002A00F0D780209A012A00F3BA80C0
:100910000E9A002A00F0B28003F23343099E079D2D
:10092000079A1A440792089A01211A44204608920D
:100930000BF048F80746002D0CDD089B002B09DD65
:10094000AB42079AA8BF2B46D21A0792089AED1A13
:10095000D31A0893099B1BB30A9B002B00F0AF80AE
:10096000002E13DD3946324620460BF0EBF818EE28
:10097000102A0146074620460BF03AF818EE101AE6
:10098000804620460AF0B6FF08EE108A099B9A1BA3
:1009900006D018EE101A20460BF0D4F808EE100A14
:1009A000012120460BF00EF80B9B002B064640F36E
:1009B00088801A46014620460BF0C4F8209B012B84
:1009C000064640F381804FF00008336906EB83034D
:1009D00018690FF00EFAC0F12000089B184410F0BF
:1009E0001F0000F09280C0F12003042B40F38A80A6
:1009F000C0F11C00079B03440793089B0344054474
:100A00000893079B002B07DD18EE101A1A462046A4
:100A10000BF0F2F808EE100A089B002B05DD3146BA
:100A20001A4620460BF0E8F806460C9B002B6ED0C9
:100A300018EE100A31460FF02BFA002867DA039BF4
:100A4000013B18EE101A03930A22002320460AF0F5
:100A500073FF0A9B08EE100A002B00F0B1810023FF
:100A600039460A2220460AF067FF059B002B0746FD
:100A700000F38E80209B022B51DC89E0109BC3F198
:100A800036034BE7069B5E1E099BB342BFBF099B23
:100A90000996F21A0B9BB6BF9B189E1B0B93069BE5
:100AA000B8BF0026002BB7BFDDE90623DDE9063518
:100AB0009D1A002334E7099E079D0A9F3BE7099A88
:100AC00067E7209B012B18DCBAF1000F15D1CBF39F
:100AD000130393B92BF000431B0D1B0583B1079B38
:100AE00001330793089B013308934FF001080B9BD8
:100AF000002B7FF46AAF01206FE74FF00008F6E7A4
:100B00009846F4E73FF47DAF18461C3072E7069B29
:100B1000002B37DC209B022B34DD069B0593059BC5
:100B20006BB93146052220460AF006FF014606460B
:100B300018EE100A0FF0ACF900283FF7BBAD219B6F
:100B4000049DDB4303934FF00008314620460AF032
:100B5000D1FE002F3FF4A4AEB8F1000F05D0B84588
:100B600003D0414620460AF0C5FE394620460AF029
:100B7000C1FE95E600263746E1E70397374699E53B
:100B8000000024400A9B002B00F0CA80069B0593BE
:100B9000002D05DD39462A4620460BF02DF8074684
:100BA000B8F1000F5BD0796820460AF063FE054675
:100BB00028B9874B024640F2EA21FFF737BB3A6972
:100BC0000232920007F10C010C300EF07CFE012283
:100BD000294620460BF010F8049B03F10109DDE9DA
:100BE0000423134408930AF00103B8460793074609
:100BF000314618EE100A0FF014F84146059000F146
:100C0000300A18EE100A0FF043F93A4606903146C2
:100C100020460BF061F8C26809F1FF3B054602BBB4
:100C2000014618EE100A0FF033F902462946204615
:100C300009920AF05FFE209B099A43EA0201079B92
:100C40000B434D460FD1BAF1390F2AD0069B002B2A
:100C500002DD059B03F1310A8BF800A075E73846E9
:100C6000BAE70122E2E7069B002B04DB20990B4345
:100C700007990B4322D1002AEEDD18EE101A01224B
:100C800020460AF0B9FF314608EE100A0FF000F9CD
:100C9000002803DCE0D11AF0010FDDD0BAF1390FE2
:100CA000D7D139238BF800302B461D46013B15F870
:100CB000012C392A71D001321A7046E7002A07DD6B
:100CC000BAF1390FEDD00AF101038BF800303CE79F
:100CD000089B09F801AC994547D018EE101A00237B
:100CE0000A2220460AF028FEB84508EE100A4FF006
:100CF00000034FF00A024146204606D10AF01CFECE
:100D00008046074609F1010972E70AF015FE3946E7
:100D1000804600230A2220460AF00EFE0746F1E72D
:100D2000069B0593049D18EE100A31460EF079FFDC
:100D300000F1300A049B05F801ABEA1A059B9342C7
:100D400009DD18EE101A00230A2220460AF0F4FDED
:100D500008EE100AE7E7059B002BC8BF1D46049B61
:100D6000D8BF01251D444FF0000818EE101A0122CB
:100D700020460AF041FF314608EE100A0FF088F8CD
:100D8000002891DC02D11AF0010F8DD12B461D46AF
:100D900013F8012D302AFAD0D7E6049A9A4284D16A
:100DA000039B0133039331231370CEE6094BFFF706
:100DB00091BA249B002B7FF46AAA074BFFF78ABAEB
:100DC000059B002BAEDC209B022B3FF7A8AEA9E7CA
:100DD000EA020200680102005F02020010B5054C41
:100DE000237833B9044B13B10448AFF300800123D7
:100DF000237010BD301D002000000000F804020028
:100E000008B5034B1BB103490348AFF3008008BD8D
:100E100000000000341D0020F8040200A3F5803A11
:100E2000704700BF174B002B08BF134B9D46FFF7C1
:100E3000F5FF00218B460F461348144A121A0EF094
:100E40006AFD0E4B002B00D098470D4B002B00D0B5
:100E500098470020002104000D000D48002802D012
:100E60000C48AFF3008009F053FA200029000DF080
:100E70007FFC09F039FA00BF000008000000000004
:100E80000000000000100020801300201C1C012026
:100E9000000000000000000008B5084809F030FF1D
:100EA000BFF34F8F0649074BCA6802F4E062134351
:100EB000CB60BFF34F8F00BFFDE700BFA80101006B
:100EC00000ED00E00400FA05F0B54FF4484287B0A9
:100ED0003B4800210EF01FFD3A4B02AA03F1100619
:100EE000154618685968144603C40833B3422246AD
:100EF000F7D13548012229460CF01EFD044610B1F9
:100F0000324809F0FDFE214631482D4E314F324C1A
:100F100009F070FE4FF448452E4B2B4840223146D5
:100F20000CF069FE3B6822681A442260ED1A13B186
:100F30004036002DF0D110B1244809F0E1FE2168BF
:100F4000264809F057FE02F069F80146244809F0E6
:100F500051FE6946002002F0CDF800212368184AAE
:100F6000084602F0BDF901461E4809F043FE02F0B2
:100F700069F910B10A200DF079FD6946002002F0F0
:100F8000B9F80021084602F035F90146164809F083
:100F900031FE4FF4801002F087F80146134809F043
:100FA00029FE002002F0D6F80146114809F022FE81
:100FB0000A200DF05BFD02F055F807B0F0BD00BF50
:100FC000022C00204F02010080130020D4010100F8
:100FD000E5010100701D0020741D0020F1010100D9
:100FE000010201000B0201001E020100300201009B
:100FF0004002010070B52B4BB4B003AA03F11006F8
:10100000144618685968154603C50833B3422A4682
:10101000F7D119889B782980AB702349562208A8FC
:101020000EF051FC00230B2220488DF8763021462B
:1010300001930CF081FC024618B11D48214609F0CD
:10104000D9FD5722194801AB08A90CF098FE0246B9
:1010500018B11848214609F0CDFD14480DF02EF8BE
:10106000024618B11448214609F0C4FD01220F4878
:1010700021460CF061FC024618B10D48214609F0EA
:10108000B9FD5722094802AB1EA90CF0B4FD024677
:1010900018B10848214609F0ADFD084809F0AAFD3D
:1010A00034B070BDBD020100640501008013002052
:1010B0005F0201007C0201009A020100B8020100F7
:1010C00038B5D0E90213426851F82340D21A022AF7
:1010D00008BF5A1C204608BF51F82250134918BFB8
:1010E000134D0EF048FD20B92946022001F030FBD7
:1010F00014E0104920460EF03EFD10B929460120AB
:10110000F4E70D4920460EF036FD08B92946EDE713
:1011100023782D2B07D1094809F0F2FDBDE83840AE
:10112000074809F067BD21460020DFE7D002010033
:1011300019FE0100D3020100D6020100D90201000C
:10114000F102010008B5D0E9023253F8220001F0A3
:101150003BFBBDE80840014809F04CBDF10201002D
:1011600008B5D0E9023253F8220001F011FBBDE8C6
:101170000840014809F03EBDF102010008B5D0E980
:101180000223013302EB830052F8231050F8040CC1
:1011900001F038FBBDE80840014809F02BBD00BF55
:1011A000F102010030B589B02D4B019304AC00254C
:1011B00001232C492C48009364222B46039402956A
:1011C00006F0AAFB224629460A2006F097FA214695
:1011D000254806F021FC224629460A2006F08EFA10
:1011E0009DF8103013B1214809F004FD01F08EFA8A
:1011F000002223461C48114606F086FD9DF810305B
:1012000013B11A4809F0F6FC1748214606F00AFD0A
:101210009DF8103013B1154809F0ECFC144D154B36
:10122000286819680EF03CF820B913484FF4C971CA
:101230000DF01EFB114B286819680EF03EF820B91E
:101240000D484FF4CA710DF013FB224600210A200D
:1012500006F054FA0A4809F0CDFC09B030BD00BFD1
:10126000990E0000F40201004C1D0020FE02010056
:10127000C8100020B81000200D030100B410002099
:10128000F102010010B50F4B0F4C196820680EF0E9
:1012900007F820B90D4840F29F110DF0E9FA0C4B08
:1012A000206819680EF009F820B908484FF4D17188
:1012B0000DF0DEFA01F020FABDE81040054809F013
:1012C00099BC00BFB4100020C81000200D0301001D
:1012D000B8100020B802010008B50A4B19680A4B83
:1012E00018680DF0DDFF20B908484FF4DF710DF0EC
:1012F000BFFA074809F004FDBDE80840054809F0B9
:1013000079BC00BFB4100020C81000200D030100FC
:1013100016030100B802010010B5B0B90C4C2378D7
:101320009A0704D50B4809F0EBFC207810BDDB07C9
:1013300006D5094A09490A4801F02EFB01F086FC4E
:10134000207800F0FE002070F0E70120EEE700BFFB
:10135000081300206906010040410500801A0600BC
:1013600000100F4010B9024B1878704701207047E9
:1013700008130020F8B50E4615461C4690B98BB1EF
:101380000A4B1B78DB070FD4094F294632463846F3
:10139000013C01F0FFFB14F0FF0405F10105F4D15D
:1013A0002046F8BD0424FBE70324F9E708130020D6
:1013B00000100F40F8B50E4615461C46A0B99BB16B
:1013C0000C4B1B78DA0711D45B0711D40A4F29465E
:1013D00032463846013C01F00BFC14F0FF0405F1E5
:1013E0000105F4D12046F8BD0424FBE70324F9E706
:1013F0000224F7E70813002000100F40D0B9104B6B
:10140000187810F0010017D1082913D8DFE801F08F
:1014100016080C1012121212050001221A707047E1
:101420004FF40073136070474FF4007313807047DC
:10143000FF23F7E7042070470320704708467047F2
:101440000813002002684AB1134613F8011B1F2934
:101450000DD93A29F9D1911C8B4202D04FF0FF30BF
:1014600070471278302AF9D1036000207047014B91
:101470001878704786F7002038B5002303714FF0C5
:10148000FF33836404460BF0B7FB00284BD1B4F85C
:101490004A524AF655239D4207D126490B2204F1B0
:1014A0004C000EF000FA00283FD094F84C30EB2BA3
:1014B00003D01833DBB2012B2ED84AF655239D42B8
:1014C00006D11D49082204F19E000EF0ECF948B344
:1014D000B4F85730B3F5007F1ED194F85930DBB122
:1014E0005A1E1A4218D1B4F85A30ABB194F85C3095
:1014F000013B012B10D8B4F85D306BB1B4F85F300C
:101500007F2B06D804F16C000BF068FAB0F5803F31
:1015100002D3B4F8623053B94AF6552085420CBF65
:101520000220032038BD0420FCE70120FAE7002058
:10153000F8E700BF830601008F0601002DE9F043A4
:10154000002385B00B600E461546FFF77BFF002891
:10155000C0F2B281804B53F82040002C00F0AE81E5
:101560003460237805F0FE056BB16078FFF7FAFE72
:10157000C60708D41DB110F0040500D00A2528467E
:1015800005B0BDE8F083002360782370FFF7C4FE48
:10159000C10700F195810DB14207EFD4002120462B
:1015A000FFF76AFF022840F099806E4604F212238A
:1015B00004F25221324618460BF010FA10338B42D7
:1015C00042F8040BF7D1002556F8041B00297DD002
:1015D0002046FFF751FF012879D80128A26C40F07E
:1015E000C18004F1570304F18C0113F8015B002D55
:1015F0007BD18B42F9D1B4F8B430B3F5807F74D18C
:1016000094F8B830092B70D104F194000BF0E8F98C
:101610004FF0FF33171841F10001BB4275EB010396
:1016200063D304F1A0000BF0D9F994F8BA30206329
:10163000012BE37059D194F8B99003FA09F91FFA14
:1016400089F36381002B50D004F1A8000BF0C6F998
:10165000424B9842064648D8831CE362626304F119
:10166000A4000BF0BBF900EB0208C4F8408004F1C1
:101670009C000BF0B3F910441FFA89F206FB02F349
:1016800013EB080345EB05029F4271EB0203A063D5
:101690002BD304F1AC000BF0A1F92E46E06365B941
:1016A0006389B34221D9E16B20460BF0B4F981196B
:1016B00020460BF0A1FA98B90136631993F84C3023
:1016C000812B14D02035C5F30805E8E70320013548
:1016D000042D7FF479AF042807D101E0042801D15B
:1016E00001254CE701287FF678AF0D2547E705F186
:1016F000140004F14C0630440BF070F90128054643
:10170000F3D9E36A8342F0D96189236C821E02FB1C
:1017100001336364A16B204601EBD5110BF06CFA29
:101720000028DDD105F07F0006EB80000BF056F9B4
:10173000431C03D00135A842ECD0D6E7C4E905002C
:101740000425074A2570138801339BB200251380B6
:10175000E380E56113E700BF781D0020FDFFFF7FF8
:10176000F42B0020B4F85730B3F5007FBDD1B4F8A6
:10177000626026B904F170000BF030F9064694F867
:101780005C302663591E0129E370AED894F8595095
:101790006581002DA9D0691E2942A6D1B4F85D80CB
:1017A000A4F8088018F00F0F9FD1B4F85F0018B9A3
:1017B00004F16C000BF012F9B4F85A10002994D01F
:1017C00006FB03FE01EB181CF44460458DD3A0EB2F
:1017D0000C00A842B0FBF5F387D33E48834284D87F
:1017E0004FF6F57083426DD903259F1C114402EB1F
:1017F0000C03032DE7626263A16323644CD1B4F848
:10180000763053EA08037FF470AF04F178000BF0F0
:10181000E5F8BB00E06303F2FF13B6EB532FFFF4D0
:1018200064AF4FF0FF33C4E90533032D4FF080035D
:10183000637186D1B4F87C30012B82D1511C2046D3
:101840000BF0DAF900287FF47CAFB4F84A2260711B
:101850004AF655239A427FF474AF04F14C000BF022
:10186000BDF81D4B98427FF46CAF04F50C700BF083
:10187000B5F803F1FF5303F50053203398427FF48A
:1018800060AF04F50D700BF0A9F8A06104F50E70BF
:101890000BF0A4F8606154E7B8F1000F3FF425AFF6
:1018A0007144022D4FEA4703E1631EBFD91907F0C7
:1018B000010303EB5103AEE70B2560E60C255EE662
:1018C00003255CE640F6F575AB428CBF0225012589
:1018D0008BE700BFF5FFFF0F525261412DE9F8433E
:1018E0004FF0FF0807680646454604244FF6FF7987
:1018F000B16B11B9002C73D063E038460BF07CF962
:10190000044600285DD1F06B0378002B6ED03A7846
:10191000042A11D1852B4DD1336BF36430460BF083
:1019200017FE044600284CD13B691B7903F03F03A6
:10193000B3712046BDE8F883C27AE52B02F03F027E
:10194000B27143D02E2B41D022F0200108293DD086
:101950000F2A40D1590637D503F0BF05336B90F8F5
:101960000D80F364437B434530D1428B72BB0378D7
:10197000FC68DFF87CE023F040030D21013B4B4382
:1019800001211EF801CB30F80CC009B3FF2B1DD884
:1019900024F813C06146013301320D2AF1D10278D7
:1019A000520605D521B1FF2B10D8002224F81320B0
:1019B000013DEDB2002130460BF016FD0446002833
:1019C00096D00023B363B4E7AB42CBD0FF25F1E759
:1019D000CC45E1D0FAE72DB90BF034F8404501D100
:1019E0000024A6E74FF0FF33F364A2E70424E8E7FE
:1019F000A80601002DE9F04F002187B0D0F8009033
:101A000004460BF0E6F9804670B999F80030042BD3
:101A100033D1D9F80C000BF056F807462046FFF7F3
:101A20005DFF054620B18046404607B0BDE8F08F17
:101A3000D9F810309A8CBA42F0D193F823B04026EE
:101A40005D4506D1D9F80C3033F81530002BE5D1BF
:101A5000EAE7F10608BF0236D9F81030985B00F0CB
:101A6000D3FCD9F80C30824633F8150000F0CCFCDA
:101A70008245D3D102360135E2E74FF0FF3B4FF00C
:101A8000FF0AC4F84CB05546A16B48460BF0B4F8B9
:101A900000285CD1E66B3778002F77D0F27AE52FFB
:101AA00002F03F03A37103D0120704D50F2B04D01B
:101AB000C4F84CB04FE00F2B54D194F84B3058067B
:101AC0003FD4790645D5236B96F80DA0E36407F063
:101AD000BF07737B53453ED1738B002B3BD13578C9
:101AE000D9F80C30019305F03F050D23013D5D430E
:101AF000284B012113F8012BB25A71B3FF2D059326
:101B000029D81046049200F07FFC6B1C0293019BC5
:101B1000039033F8150000F077FC039981421AD145
:101B2000049A029D059B11461B4A9342E2D13378E9
:101B30005A0604D519B1019B33F815305BB97D1EE7
:101B4000EDB2002120460BF04FFC00289CD08046CF
:101B50006AE7BD42BDD0FF25F3E74FF6FF70824232
:101B6000E2D0F8E72DB930460AF06CFF50453FF45B
:101B70005BAF94F84B30DB079AD40B2204F14001A1
:101B800030460DF090FE002892D14DE74FF004084A
:101B90004AE700BFA8060100B50601002DE9F04F95
:101BA00090F84BB01BF0A00599B0044640F07E8140
:101BB0000668F26832F81530002B4AD13378042BCE
:101BC00040F087800F230E352046B5FBF3F5A91CA6
:101BD0000BF068FC8146002877D1236B0135A3EB1D
:101BE0004515E379E5645A0735D523F00403E3711D
:101BF00020460BF04EFA50BB616B4FF0FF3220468F
:101C00000BF0B1F918BBA3682BB3214604A80BF065
:101C10001AFDE0B9D4E9042370894FF40071E0FBA8
:101C200001233069C4E9042338300AF0E5FE306945
:101C3000D4E9042328300AF0DFFEE379326943F067
:101C4000010382F8213004A80BF016FD18B181467B
:101C50003BE00135AEE7D6E903544022002120469F
:101C60000DF059FE85232370C02384F82030012114
:101C700000231E4640224FF0C10C9E4604EB010893
:101C8000571C04F802C004F807E0F0B2023221B198
:101C900035F8131009B10133DBB20F0AA15408F86B
:101CA00002700232D706F2D135F813700136002FD8
:101CB000E6D184F82330831C637028460AF003FFC2
:101CC00084F82400000A84F82500484619B0BDE8CD
:101CD000F08F04F1400797E807000DF1100A1BF0A0
:101CE000010F8AE8070000F0E980402384F84B30B8
:101CF0004FF001089AE80700BC46F368ACE803001F
:101D00002CF8022BB8F1050F4FEA12428CF8002094
:101D10005ED9981E424630F8021F002946D10DF1C7
:101D20000F0C072102F00F0909F13000392888BF94
:101D300009F137000CF80109481E96464FEA1212C5
:101D40004AD0BEF10F0F45D800F160030DEB03023E
:101D50004FF07E0C02F858CC0022A1F1020C904208
:101D600002D9B95C202939D104F13F0C07289CBF66
:101D700000F160030DEB030102F1010296BF11F8BF
:101D8000581C20210130072A0CF80210EED92046F9
:101D9000FFF730FE8146002840F08B8008F10108F3
:101DA000B8F1640FA6D14FF007098EE74FF0100C81
:101DB00001F0010E0EEB4202D30344BF82F48832DD
:101DC00082F02102BCF1010C4FEA5101F0D1A2E7EF
:101DD0004246A4E70146A5E70121B5E780290AD9D3
:101DE0009F2903D92031C9B21C2904D8944502F196
:101DF0000101B9D00A460132B1E7216B2046A1EBBF
:101E000045110AF0E6FF814600287FF45EAF3846B0
:101E10000AF018FE4FF6FF780190A16B30460AF0E9
:101E2000EBFE814600287FF450AFE36B019AD6F8B1
:101E30000CE05A73E9B24FF00F024FF00D0CDA725A
:101E4000DFF8DCA018734A1E0CFB02F29876D876F5
:101E500084461AF8019B404518BF3EF8120003F86B
:101E6000090003EB090B0CF1010C18BF01324FEA1A
:101E70001029002808BF4046BCF10D0F8BF80190D7
:101E8000E7D1404502D03EF812200AB941F04001A6
:101E9000197001233371002120460BF0A5FA814609
:101EA00000287FF412AF013DB7D11BE04FF00609C7
:101EB0000BE704287FF409AF84F84BB01BF0020F46
:101EC0001BBF0C350D210125B5FBF1F518BF013500
:101ED000294620460BF0E6FA814600287FF4F5AE4D
:101EE000013D8AD1A16B30460AF086FE814600286A
:101EF0007FF4EBAE01462022E06B0DF00CFD03CF2A
:101F0000E36B18605960BA78398819819A7294F82D
:101F10004B30E26B03F01803137301233371D4E6E3
:101F2000A80601002DE9F04F0B78D0F800B02F2B58
:101F300099B004460F4601D05C2B0AD13A4613787B
:101F40002F2B174602F10102F9D05C2BF7D00023AA
:101F500001E0DBF81C30A3600023E3619BF8003054
:101F6000042B1FD1A368EBB1DBF820302362DBF830
:101F700024306362DBF82830A362214604A80BF00A
:101F800062FB0346002840F09D80DBF8102002F140
:101F900038000AF023FDC4E9040392F8213003F06D
:101FA0000203E3713B781F2B00F283818023002121
:101FB000204684F84B3019B0BDE8F04F0AF009BF55
:101FC00001F0E003C02B31D101F01F0101230133E7
:101FD0003B44174617F8012B02F0C000802840F060
:101FE000988102F03F029F4242EA8111F2D1A14A58
:101FF000A1F18003934200F28C81A1F55843B3F51F
:10200000006FC0F08681B1F5803FC0F061819A4ACF
:10201000A1F5803302EA8313C1F30901194341EAB0
:1020200008010B0C2AF81630013651E101F0F003DB
:10203000E02B03D101F00F010223C8E701F0F80300
:10204000F02B40F0668101F007010323BFE73A4619
:1020500013782F2B174602F10102F9D05C2BF7D031
:102060001F2B8CBF00250425012E30D1BAF800307B
:102070002E2B32D100232AF8163004F140029E4262
:102080008CBF2E21202101330B2B02F8011BF6D12E
:1020900045F0200584F84B502046FFF7ABFC94F840
:1020A0004B30002800F0EC8004280BD1990603F097
:1020B000040240F1DA80002A00F0FB80802384F8DB
:1020C0004B30002019B0BDE8F08F0425CCE7022E7C
:1020D00003D1BAF802302E2BC8D0AAF102029EBB5F
:1020E00000232AF81630002E00F013813AF813105E
:1020F00020291A4603F10103F8D00AB92E2901D18B
:1021000045F00305AAF1020131F816302E2B01D05B
:10211000013EF9D14FF020334FF00009636423648E
:10212000C4F84730C8460823511C01913AF81210F0
:10213000F9B1202904D02E290ED1019AB24210D033
:1021400045F00305019AEFE732F81630202B01D055
:102150002E2BC5D1013EC2E7994505D2019AB24264
:102160003BD10B2B30D101E00B2B27D145F00305E0
:102170000B2394F84020E52A04BF052284F8402070
:10218000082B04BF4FEA88085FFA88F808F00C03B0
:102190000C2B03D008F00303032B01D145F00205FB
:1021A000A8073FF577AF18F0010F18BF45F01005ED
:1021B00018F0040F18BF45F008056BE7019AB2420A
:1021C00002D045F00305D4D84FEA88085FFA88F8B2
:1021D00001960B234FF00809B4E77F2927D945F072
:1021E000020208460393029200F00EF94FF469715F
:1021F00000F0C0F8FF28DDE90223014615D9581E7A
:10220000814503D345F0030599469BE704EB09009C
:102210000D0A80F8405009F10109154604EB090246
:1022200009F1010982F840108CE7154678B113488E
:10223000CDE902130DF092FCDDE9021338B9A1F1EA
:10224000410292B2192A06D848F00208E6E745F0A2
:1022500003055F21E2E7A1F1610292B2192A9EBF54
:10226000203948F0010889B2D8E7002A08BF0520C4
:1022700028E700BF7FFF10000000FF03A106010058
:102280005A073FF51FAFA379DB0644D59BF8000042
:10229000042834D1A36823622369E279DBF81000B3
:1022A00023F0FF0313436362E36CA36221460BF048
:1022B00012FA2368DFF86480D3F80CA0DFF860908E
:1022C00000263A4612F8011B0D063FF579AE174677
:1022D0008DB21F2D7FF6F9AE2F2D3FF4B8AE5C2DD9
:1022E0003FF4B5AE7F2D04D8294648460DF036FCA4
:1022F00078B9FE2E0DD82AF816500136E1E7216B89
:102300000BF14C03C1F3080119440BF0F9F9A0607B
:10231000CFE70620D6E60520D4E600BF00DC00D8D3
:10232000980601001FB5CDE9001003A814460391DB
:10233000FFF788F8002818DB0D4A52F820301BB14F
:10234000002142F820101970019B23B10021587020
:10235000197042F820302CB1002201A96846FFF71D
:10236000EDF80446204604B010BD0B24FAE700BF88
:10237000781D00207F28F0B501D880B2F0BDB0F5FF
:10238000803F16D2B1F5697F13D10C4E83B241F66E
:10239000DD4410200021621A01EB5202950036F84C
:1023A00022709F4207D02CBF144611460138F2D14B
:1023B000E4E70020E2E7024BE85ADFE7DC7C0100BB
:1023C000DE7C01007F28F0B515D9B1F5697F11D108
:1023D0000B4E102241F6DD440021631A01EB53033A
:1023E0009D0036F82370874206D034BF19461C463C
:1023F000013AF2D10020F0BD024BE85AFBE700BFE2
:102400006409010066090100B0F5803FF0B522D2F1
:102410001F4A204983B2B0F5805F28BF0A46141DC9
:1024200034F8042C2146AAB1934213D334F8025C49
:102430002E0AEFB252FA85F5A84222DA082E09D800
:10244000DFE806F0050A10121416181A1C00801A8C
:1024500034F810301846F0BD981A00F001001B1A2D
:102460009BB2F7E7103BFBE7203BF9E7303BF7E790
:102470001A3BF5E70833F3E7503BF1E7A3F5E353E5
:10248000EEE70434002ECBD101EB4702C7E700BFD3
:10249000B6060100A8080100024A13680133136060
:1024A000704700BFC81F0020004870470000413837
:1024B00010B52048012101F015FC0422104601232B
:1024C000072103F013F81C4B8022C3F8CC20012213
:1024D000104600230A2103F009F8002305220F21EA
:1024E000042003F003F8012305220E21042002F04A
:1024F000FDFF002108460123052202F0F7FF01231A
:1025000019460522002002F0F1FF012305220221D5
:10251000002002F0EBFF012305220321002002F03E
:10252000E5FFBDE81040002305220921012002F04B
:10253000DDBF00BF00550A0000800846B0F5806F7F
:1025400071F1000370B504460D4605DA0146BDE899
:102550007040154808F04EBB07F016FD134B0022E3
:1025600009F050FFB4F5801F75F1000602460B46D6
:1025700004DA0F48BDE8704008F03CBB0D4B002268
:1025800009F040FFB4F1804F75F1000402460B469C
:1025900001DA0948EEE7074B002209F033FF024653
:1025A0000B460648E6E700BF54F001000000503F2C
:1025B0005AF001000000904063F001006CF001004F
:1025C0002DE9F04F95B001460646684617460BF0D8
:1025D000DBFD0446002876D13D4DDFF818B105F14A
:1025E0001A093B4968460BF032FE804604464FB953
:1025F000002861D1AC7E002C5ED03648494608F0F8
:10260000F9FAEEE7002857D1AC7E002C54D02B7B92
:10261000DB062BD530460DF0C0FA4A462E498246DD
:10262000301808F04BFC49462C4808F0E3FA2A8998
:102630002B48510A02F01F0301F2BC71C2F343128E
:1026400008F0D8FA6989274801F01F03C1F3451241
:102650005B00C90A08F0CEFA3A4641463046FFF719
:10266000AFFF044640BB06F80A00BAE74A463146C7
:10267000584608F0BFFA2A891948510A02F01F0388
:1026800001F2BC71C2F3431208F0B4FA698916482A
:1026900001F01F03C1F345125B00C90A08F0AAFA52
:1026A000012F02D129681148A9E7022F99D1D5E954
:1026B0000001FFF743FF94E768460BF0BFFD20469B
:1026C00015B0BDE8F08F0146094808F093FAF6E727
:1026D000D015002075F001007CF0010081F00100B0
:1026E0008AF001009BF00100BAF00100CBF001007C
:1026F000D0F00100ABF0010008B5002202491046FD
:10270000FFF710FE08BD00BF19FE010010B50B4811
:10271000012101F0E7FAFFF7CBFE09490948012240
:10272000FFF700FE044628B10146074808F062FAA8
:10273000204610BD054808F0E3FAF9E740410500DE
:1027400019FE01007C1D0020FBF0010011F10100C9
:1027500070B505460E4600200A4908F0CFFB044636
:1027600028B109490DF007FAB0FA80F4640931463E
:1027700006480DF00AFA2A4621460448FFF720FFD2
:10278000002070BD96060100D302010087F70020EB
:1027900038B5054638B9094808F0B2FA084808F0D3
:1027A00029FA204638BD0BF08AFD04460028F8D0EF
:1027B00002462946034808F01DFAF2E726F1010017
:1027C0003CF101004DF1010038B5054640B90A4819
:1027D00008F096FA094808F093FA0124204638BD1B
:1027E0000BF0ECFD04460028F8D0024629460448C8
:1027F00008F000FAF2E700BF65F1010086F1010080
:102800009BF1010070B50E46054600B129B9094893
:1028100008F0F0F90124204670BD0BF09FFE04463D
:102820000028F8D0034632462946034808F0E2F96A
:10283000F1E700BFB6F10100CCF1010038B5054663
:102840000BF049FC024620B11D48294608F0D2F998
:1028500038BD1C4928460DF08EF928B91A491B4885
:102860000DF093F90020F3E7194928460DF083F99C
:102870000446D8B9154D28460DF08FF92B1854B9D8
:102880001C78A4F12F014C424C410138421C03F149
:10289000FF33F4D1E6E71A782F2AF6D100232B5420
:1028A0002B78002BDED12A706B70DBE729460748B6
:1028B0000DF045F9034905480DF041F9D2E700BF95
:1028C000E7F1010001F2010019FE010009130020E7
:1028D00003F2010008B5024808F012FA08BD00BF73
:1028E0000913002010B5446A14F00104FBD1072934
:1028F00002D1436A9B07FCD48260C36823F440334F
:1029000000293FD037293AD0182907D8214ACA4090
:10291000D20734D407292CD002292DD029292ED032
:1029200008292FD84FF49472CA4012F0010F14BF37
:102930004FF4003200221343082914BF00224FF441
:10294000C01223F46013072943EA02031CD00C29A8
:1029500008BF4FF40014234323F07F5343EA01617F
:10296000C160036BDA07FCD50122036BDB070ED4D1
:1029700010BD4FF44032DEE74FF48032DBE74FF416
:102980000032D8E70022D6E74FF40014E3E70263F1
:10299000EBE700BF40200201F7B504460D46724840
:1029A0000121164601F09EF9704BC4F81C38012332
:1029B000C4F820383F23C4F824384FF40863C4F81F
:1029C00000386B4BC4F804386A4BC4F808386A4BBB
:1029D000C4F80C38694BC4F81038A3F54433C4F874
:1029E0001438674BC4F81838664B6363304601F0FF
:1029F00085FEB0FBF5F0000240F60253002240F0E5
:102A00000500E0621146A3622046FFF76BFF4FF41A
:102A1000807208212569FFF765FF23699D425A4DA1
:102A200036D1AB786FF3C303AB70AA7823696FF329
:102A3000041212F00806AA704DD000223721204659
:102A4000FFF750FF002229212669FFF74BFF23697A
:102A50009E420DD04D4E2369002B26DAAB7813F041
:102A6000200F2B780CBF0222032262F302032B708B
:102A7000002202212046FFF735FF00220321FFF745
:102A800031FF23692A681B0C63F3D2022A6052E0EB
:102A9000236B99034FD4236B1A034CD42369DB05B2
:102AA00049D5AB7843F00803BEE700223721204622
:102AB000FFF718FF32462921FFF714FF2369AA7890
:102AC0009B0F63F345122369AA701B0ED2B263F306
:102AD0008612AA70BFE7324637212046FFF702FF71
:102AE000324629212769FFF7FDFE23699F421ED048
:102AF000274E2369002BBBDB002237212046FFF73E
:102B0000F1FE4FF400222921FFF7ECFE2369AA7899
:102B10009B0F63F345122369AA702A689B0803F48C
:102B2000800343F00103324013432B60E1E72B782D
:102B300066F302032B702A68C2F3CF022046120408
:102B40000D210192FFF7CEFE019A0721FFF7CAFE81
:102B5000019A3721FFF7C6FE0222062103B0BDE825
:102B6000F040FFF7BFBE00BF0045020001030001B7
:102B7000201CBA7FFA230500000004180210040884
:102B80000010021833003A00CC1F0020000008514A
:102B9000F8FFBFFFC36A43F47E03C36201230363EC
:102BA0002023036302230363436843F400734360F9
:102BB0000E4B8160C360036BDB07FCD5012303630D
:102BC000036B9906FCD52023036302F50073016AA9
:102BD00042F8041B9342FAD1036B9A07FCD50222F8
:102BE000036B9B0700D470470263F9E710002211C2
:102BF000C36A43F47E03C3620123036310230363A8
:102C000002230363436843F4007343600E4B816007
:102C1000C360036BDB07FCD501230363036BD90699
:102C2000FCD51023036302F5007352F8041B016204
:102C30009342FAD1036B9A07FCD50222036B9B07E0
:102C400000D470470263F9E700002218024B18789D
:102C500000F00700704700BFCC1F002030B5124CB9
:102C6000124B2268124D1A608BB0124B2B60124B24
:102C7000009306F04BF82B680293104B0393104B14
:102C80000493104B05934FF4C8621923CDE9062332
:102C900000213223CDE9081301906946206805F030
:102CA000CBFA0BB030BD00BFC8100020CC2B0020E9
:102CB000C82B0020BC10002007F201009C2000203F
:102CC000D41F0020F016002038B501F089FF12480B
:102CD000124C012101F006F801221146002001F0FA
:102CE000EBFE022501221146C4F88050002001F0BD
:102CF000E3FE01221146C4F88450002001F0DCFEFE
:102D00000122C4F88C501146002001F0D5FEC4F811
:102D10008850002038BD00BF30053E0000400E4006
:102D200008B54FF0804301225A6403F564231E491D
:102D3000D3F8B02042F00102C3F8B020D3F8E0206D
:102D400042F00802C3F8E0204A6B42F480524A6322
:102D5000D3F8E02022F00802C3F8E020D3F8B02036
:102D600022F00102C3F8B020104AD2F8A43143F493
:102D7000F843C2F8A43105F075FF00F09FF805F0A4
:102D800015FF05F05BFF05F027FFFFF79DFF0CF037
:102D90008AFC00F087F800F041F90BF05EFEBDE818
:102DA000084002F087BF00BF0040054000300E40E1
:102DB00030B5214D0FCD97B00FAC0FC495E807008B
:102DC0001E4B84E807001E4A1E49CDE903231E4B13
:102DD000059303F1042306930423CDE9071310227E
:102DE00000210BA80CF097FD184B4FF48010CDE993
:102DF000090327238DF82C3028238DF82D30144B10
:102E00000C9320230D9301238DF83930114B00933F
:102E1000114803AB0FAA09A906F068FB044618B1D4
:102E20000E4888210BF024FD00214FF4E1300BF017
:102E300009FD204617B030BD48F2010000B2040081
:102E40000010014000040404070407051C100140A1
:102E5000EBF700205C2300200424002019F201007D
:102E600008B5FFF7A5FF28B1BDE808400248B82122
:102E70000BF0FEBC08BD00BF19F20100014806F0CE
:102E8000EDBB00BF0424002008B504480BF06CFD26
:102E9000BDE8084002480BF067BD00BF64F20100C6
:102EA0007CF2010008B50448012100F01BFFBDE8D9
:102EB00008400BF066BC00BF00550A000148012124
:102EC00000F010BF00550A0008B500F093F8124B4F
:102ED00012498B4212D3124B124900208B4218D355
:102EE000FDF7A0FF186850F82240586840F82240CB
:102EF000013298688242F5D30C33EAE70022F8E702
:102F00001C6844F8220001325C68A242F8D30833FE
:102F1000E4E70022F8E700BF000502000C0502000C
:102F20000C0502000C0502000048704700A24A048C
:102F3000174AD2F8943003F00703023B042B1FD842
:102F4000DFE803F00620031A0800124B1B680AE0B2
:102F5000114BFBE79368C3F30443073B072B14D8DB
:102F60000E4A52F823300A4AD2F80001C0F3042076
:102F70000130B3FBF0F07047094B1B685B08F2E7C8
:102F8000074BE3E74FF40043EDE70023EBE700BF17
:102F900000400E40D8100020D010002094F2010014
:102FA000D410002008B5FFF7C3FF054BD3F8083154
:102FB000C3F308230133B0FBF3F0024B186008BDE4
:102FC00000400E40CC100020014B1868704700BF35
:102FD000D0100020054B1860054BD3F8943003F057
:102FE0000703022B01D1FFF7DDBF7047D01000208F
:102FF00000400E40044B054A9A60D3F8882042F402
:103000007002C3F88820704700ED00E00000000067
:10301000014B1868704700BFD81000200E4B9B6A08
:1030200003F1F02202F5F012B2F5E04F10B50ED226
:1030300019680A4A91420AD1094C227812F0FD0F10
:1030400008D1DB69984708B90123237010BD4FF4FC
:103050008170FBE70020F9E70010E10F07B0CD5EBB
:103060000BF800204FF000530B4A1A600B4A012363
:103070009360136823F4E06343F480631360BFF349
:103080004F8F0749074BCA6802F4E0621343CB60D5
:10309000BFF34F8F00BFFDE702020FF000500E405C
:1030A00000ED00E00400FA05064B9A6A02F1F023F5
:1030B00003F5F013B3F5E04F01D2536A184700202F
:1030C000704700BF0010E10F094B9A6A02F1F0232C
:1030D00003F5F013B3F5E04F09D2126B02F1F023C0
:1030E00003F5F013B3F5E04F01D25368184770476A
:1030F0000010E10F0A4B9A6A02F1F02303F5F01376
:10310000B3F5E04F09D2126B02F1F02303F5F0138F
:10311000B3F5E04F01D2936818474FF481707047C0
:103120000010E10F0A4B9A6A02F1F02303F5F01345
:10313000B3F5E04F09D2126B02F1F02303F5F0135F
:10314000B3F5E04F01D2536918474FF481707047CF
:103150000010E10F0E4B07B59A6A019002F1F023BF
:1031600003F5F013B3F5E04F0ED2126B02F1F0232A
:1031700003F5F013B3F5E04F06D29369012101A8DE
:10318000984703B05DF804FB4FF48170F9E700BF86
:103190000010E10F0A4B10B49C6A04F1F02303F510
:1031A000F013B3F5E04F05D2236B1BB15B6A5DF8FA
:1031B000044B18474FF401705DF8044B704700BF93
:1031C0000010E10F0A4B9A6A02F1F02303F5F013A5
:1031D000B3F5E04F09D2126B02F1F02303F5F013BF
:1031E000B3F5E04F01D2936A18474FF4017070476E
:1031F0000010E10F124B70B59B6A03F1F02303F549
:10320000F013B3F5E04FE0B00D4616D24FF4C072A4
:103210006946FFF7BFFF044660B940F20126294620
:103220006846FFF7CFFFB042F9D040F2032398423F
:1032300018BF0446204660B070BD4FF40174F9E732
:103240000010E10F0A4B9A6A02F1F02303F5F01324
:10325000B3F5E04F09D2126B02F1F02303F5F0133E
:10326000B3F5E04F01D2136B18470120704700BF40
:103270000010E10F0D4B10B49C6A04F1F02303F52C
:10328000F013B3F5E04F0BD2246B04F1F02303F5F8
:10329000F013B3F5E04F03D2A36B5DF8044B18476E
:1032A00040F201105DF8044B704700BF0010E10FC1
:1032B0000A4B9A6A02F1F02303F5F013B3F5E04FDD
:1032C00009D2126B02F1F02303F5F013B3F5E04FCE
:1032D00001D2D36B184740F2011070470010E10F84
:1032E0002DE9F0439946334B17469A6A02F1F023D1
:1032F00003F5F013B3F5E04F91B005460E464FD2FB
:10330000136B03F1F02303F5F013B3F5E04F47D24D
:1033100003A8FFF7D9FE079BDC68A3B2002B42D0BD
:1033200001A92846FFF7E6FE00BB029B06EB090554
:103330009D423BD8A1B2B6FBF1F401FB1463DDF86A
:103340000480D3B1B5FBF1F24C4201FB125204EA06
:10335000060001EB080C62B12C40211A6044D1B97F
:103360004A46394608EB0600FFF784FF11B0BDE876
:10337000F083A9EB0104E118F0E7B9FBF1F301FBDD
:10338000139308EB060023B14C4204EA09042144DC
:10339000E5E74946E3E7FFF78BFF0028E0D0E5E7E4
:1033A0004FF48170E2E740F20140DFE740F2024073
:1033B000DCE700BF0010E10F38B504460D4601B14F
:1033C00018B9044837210BF053FA23682B602560A5
:1033D00038BD00BF04F3010038B504460D4601B105
:1033E00018B9064878210BF043FA23681BB1AB42A9
:1033F00002D12B68236038BD1C46F6E704F30100B8
:1034000070B5D0B1C9B10E4E431E013913F8014F4A
:10341000A25D02F00302012A11F8012FB55C05F04C
:103420000305204608BF04F12000012D08BF20320B
:10343000801A01D1002CE9D170BD0120FCE700BF4A
:103440005200020005490A681318054883428CBFE0
:103450004FF0FF320B601046704700BFDC100020B9
:103460000000082008B52948012100F03BFC012399
:1034700004220221052002F039F8002002F020F891
:10348000234B0122C3F810281146042001F014FB3D
:10349000204801F033F9204BD3F8F02042F001022C
:1034A000C3F8F020D3F8FC2042F08072C3F8FC206F
:1034B000A3F55D43194A1A6000F5D520184B00F2B8
:1034C000FC40B0FBF3F0174B013802221861C3F83F
:1034D000F0204FF48072C3F804234FF06043124A87
:1034E000C3F8B02F114AC3F8802ED3F8002E42F44F
:1034F0008072C3F8002EFF2283F82020D3F8002E1C
:1035000022F48072C3F8002E002008BD00550A0086
:103510000080104306000E0000ED00E0FF030040B5
:10352000F8590D00000004E055CEACC509000100BB
:103530004FF0604330B5D3F8802ED20715D5012463
:103540000B4D8440D5F8FC2042F08072C5F8FC2079
:10355000D3F8002E2243C3F8002E53F82020002A6F
:10356000F0D003F82010002030BD1120FCE700BF90
:1035700000ED00E0082838B504460D4604D84FF6A3
:10358000FF73CB40DB0704D4084840F2FE310BF058
:103590006FF930230C2013FB040000F18840012157
:1035A00000F5082001FA05F5056038BD52F3010069
:1035B000082838B504460D4604D84FF6FF73CB40B3
:1035C000DB0704D4084840F22D410BF051F93023B9
:1035D0000C2013FB040000F18C40012100F50820B1
:1035E00001FA05F5056038BD52F3010010B501215F
:1035F0000446094800F076FB0848012100F072FB00
:10360000A37820786178B3FA83F35B09042201F090
:103610006DFF002010BD00BF4041050000550A00AD
:1036200038B504784578082C04D84FF6FF73EB4082
:10363000DB0704D407484FF489610BF019F93023F4
:10364000634303F18043012203F50823AA409A61F2
:1036500038BD00BF52F3010070B506784478082EDB
:10366000054604D84FF6FF72E240D30704D40C4855
:103670004FF483610BF0FCF830230C2213FB06237C
:1036800003F1067303F5004304EBC304A400AB7815
:103690002068C0B213B9B0FA80F0400970BD00BF15
:1036A00052F301002DE9F04F9A46554B85B01B7837
:1036B000DDF83C909DF844B0DDF8508006460F469A
:1036C0001546002B00F08B80172A00F28A800E9B93
:1036D000002B00F08680B9F1000F00F08280129B71
:1036E000B3F5006F7DDC012802D1109B002B78D050
:1036F000444B03EB05131B7B002B74D0424C102270
:10370000002168460CF007F904EB45141022002F45
:1037100057D1394620460CF0FEF843F2100363807F
:10372000BBF1000F03D1E37843F00303E370364AA3
:103730000E9BCDF800A002EB451CCCE90193129B37
:10374000013BC3F30A009DF84C30690103F0030309
:103750009B0643EA001E53582C4818404EEA0003CB
:10376000012E535041D11323CCF80C309CE80F00AC
:103770000CF1100E8EE80F00DCF81C20109BCCF82A
:1037800014306FF0030161F39F02012FCCF81C206D
:1037900003D1CCF81890CCF804301A4A290102EB76
:1037A000051342F801800027159A5A6028469F6049
:1037B0005E732246694601F04FFF384605B0BDE80A
:1037C000F08F002120460CF0A6F84FF4447363807C
:1037D000BBF1000FABD1E37843F03003A6E70C4810
:1037E000ECE70C48EAE70C48E8E7B8F1000FD4D161
:1037F0009CF8023068F304138CF80230CDE700BF68
:103800000CF8002024240020A42500200F80FFF3C2
:10381000028000F0018000F0078000F038B5124B04
:103820001B780546DBB1E0B10BF0EBF80F4A002343
:103830001146147B54B92B601A0101EB03130125C7
:103840008C501D730BF0E3F8204638BD0133182B64
:1038500002F11002EDD10BF0DAF80548F5E7054862
:10386000F3E70548F1E700BF0CF80020242400200E
:10387000048000F0028000F0018000F013B50BF02E
:10388000C0F80C4A0023147B7CB90133182B02F1D9
:103890001002F8D1019001F06FFE074B01981C70E7
:1038A0000BF0B5F8204602B010BD0BF0B0F803489D
:1038B000F9E700BF242400200CF80020058000F068
:1038C0000D4B1B7810B5044693B1172812D80BF096
:1038D00098F80A4B03EB04131A7B2AB100241C73DB
:1038E0000BF095F8204610BD0BF091F80448FAE76C
:1038F0000448F8E70448F6E70CF8002024240020E8
:10390000068000F0028000F0018000F013B5134B38
:103910001868019000238DF804300BF072F8104BFA
:103920001C7824B10BF073F80E4802B010BD0122D0
:103930001A700BF06CF80C4A234621460133182B01
:10394000117302F11002F9D104230DEB03008DF87D
:10395000073001F041FE0020E7E700BF9EF30100C1
:103960000CF80020038000F0242400200A4A12787A
:1039700008B55AB117280BD8084A02EB00131B7B75
:1039800043B1002101F00CFE002008BD0448FCE713
:103990000448FAE70448F8E70CF800202424002043
:1039A000028000F0018000F0078000F00A4A1278DF
:1039B00008B55AB117280BD8084A02EB00131B7B35
:1039C00043B1012101F0ECFD002008BD0448FCE7F3
:1039D0000448FAE70448F8E70CF800202424002003
:1039E000028000F0018000F0078000F00A4A12789F
:1039F00008B552B117280AD8084A02EB00131B7BFE
:103A00003BB101F0AFFE002008BD0548FCE70548CA
:103A1000FAE70548F8E700BF0CF80020242400204E
:103A2000028000F0018000F0078000F00D4B1B7851
:103A300093B1172812D889B10B4B03EB00131B7BF2
:103A400073B10A4B1A6E012303FA00F010401ABF3B
:103A500000200B7008707047054870470548704794
:103A6000054870470CF80020242400200020004066
:103A7000028000F0018000F0078000F00B4A12780D
:103A800010B50C4662B117280CD859B1084A02EBA0
:103A900000131B7B43B101F085FE2070002010BD98
:103AA0000448FCE70448FAE70448F8E70CF800206B
:103AB00024240020028000F0018000F0078000F044
:103AC0002DE9F843DFF86480D8F86070D8F86C30DE
:103AD0001F4000D5FEE7144CDFF854900126002566
:103AE000374217D02368C8F868609BB1A168626844
:103AF0000131A16028469847637B012B0AD148B960
:103B000009EB45131A7B60F341021A731A7F60F3C5
:103B100041021A770135182D4FEA460604F11004C8
:103B2000DED1BDE8F88300BF24240020002000403F
:103B3000A42500200C4B984210D90C4B984210D968
:103B4000022201230A490B640A49D1F8003123F00B
:103B5000407343EA0263C1F8003170470022134604
:103B6000F0E70122FBE700BF0048E8010090D00326
:103B70000000C84300400E4038B54FF0804300229B
:103B80005B68104BC9B21C461D798D4202D11D687D
:103B9000854213D20132072A03F10803F4D10A48FF
:103BA00041F2DD710AF064FE03224FF080414B6860
:103BB00023F0407343EA02634B6038BD04EBC2025A
:103BC0005279F2E7C4F40100A2F301001F2810B5F6
:103BD000044604D903484FF4B6710AF049FE0120A7
:103BE000A04010BDEDF30100044BDB6B5B0604D479
:103BF000034AD2F8C830002BFBD1704700300E408A
:103C00000000C64308B5FFF7EFFF024B5868C0F34A
:103C1000014008BD00300E40044BD3F84421D207C8
:103C200003D4D3F840211042FBD1704700400E402E
:103C3000B0F5004F38B5054604D30C4840F64A614C
:103C40000AF016FE6C1C14BFB4FA84F42024C4F1EC
:103C50001F042046FFF7BAFF0138A84204D00348EA
:103C600040F651610AF004FE204638BD3CF40100E4
:103C70004FF0804341F6713270B51E6C1A640546F0
:103C80000C46FFF779FF134A134B022C08BF13466B
:103C90009D42124AB6B209D94FF08C43C3F80021B5
:103CA0000F4A954207D84FF0884306E04FF088430B
:103CB000C3F80021F7E7002CF5D14FF480521A60C9
:103CC00041F671339E421EBF4FF0804300221A64BA
:103CD00070BD00BF0024F40080D543020202020040
:103CE00080F0FA02C0F30322013A38B503460E2AE7
:103CF0003AD8DFE802F040433939081B1E21253647
:103D0000292E391833001F4C0020C3F3043508B1A5
:103D1000FFF782FF04F1424404F5801405EBC4046C
:103D2000A400216038BD184C0020EEE7174C01209C
:103D3000EBE7174C1020E8E7164C4FF48070E4E7EF
:103D4000154C4FF48030E0E7144C81F00101002065
:103D5000DBE7134C81F001010020D6E7114C002075
:103D6000D3E7114C0020D0E7BDE838400F4841F6BA
:103D700079510AF07DBD0E4C0020C6E70D4C0020A5
:103D8000C3E700BFB0400E40C4400E40E0400E40CC
:103D9000E8400E40EC400E40F0400E4060410E40C6
:103DA00064410E40F0410E4050410E40A2F301002C
:103DB00000400E40C0400E4008B5C0F30313013B65
:103DC0000B2B00F2AB80DFE803F0060C101A202466
:103DD000282C668692A5534BD3F80001C0F304202B
:103DE00008BD504BD3F81401F8E74E4BD3F800014F
:103DF000C0F301600130FFF7E9FE0138F0E7494BFD
:103E0000D3F80C01C0F30820EAE7464BD3F81801B9
:103E1000F8E7444BD3F81C01F4E7424BD3F8080110
:103E2000F0E7414B98422AD00ED8A3F5BA23984226
:103E30002BD003F57033984215D041F61D713B48E5
:103E40000AF016FD0020CBE7394B984205D0394BDC
:103E500098420ED0384B9842EFD1324BD3F8200124
:103E6000C0F30230C7E72F4BD3F8200100F00F005A
:103E7000C1E72C4BD3F82001C0F30120BBE7294B4D
:103E8000D3F82001C0F30310B5E7264BD3F8200187
:103E9000C0F30340AFE7294B98420CD003F5A113C0
:103EA00098420ED0264B984212D11E4BD3F82801CF
:103EB00000F003009FE71B4BD3F82801C0F301106B
:103EC00099E7184BD3F82801C0F30130043092E78A
:103ED00041F64171B3E71B4B984205D1114BD3F822
:103EE000300100F003007BE741F65071A7E7164B65
:103EF000984205D0154B984206D041F668719EE76E
:103F0000084BD3F85C01ECE7064BD3F85C01C0F337
:103F1000014065E7034BD3F8040173E741F675717F
:103F20008DE700BF00400E4080161800A2F301008C
:103F300000362C0080262E0080002A0090171C00DE
:103F400090071A00A0091400B8003200B90034002C
:103F5000C0F30313013B10B50C460B2B00F2188283
:103F6000DFE813F00C0034004500600074008800A6
:103F70009C00BC006101CE01DA0102021F2904D9B4
:103F8000C44841F69E710AF073FC0AF01CFDC24859
:103F9000FFF7D0FD00F00AFAC04BD3F8001121F46E
:103FA000F85141EA0424C3F80041FEF7FBFF044640
:103FB000FFF728FE01462046FFF75AFEFEF7B8FF3E
:103FC000FFF7B8FDBDE8104000F006BA1F2904D97C
:103FD000B04841F6B4710AF04BFCB04BD3F8141161
:103FE00021F4F85141EA0424C3F8144110BD4B1EDA
:103FF000B3F5004F0DD2B4FA84F1A84BD3F80041C9
:10400000C1F11F0124F0407444EA0164C3F8004187
:10401000ECE7A34840F65A510AF02AFC002CEAD1FA
:104020002021EAE7B1F5007F04D39A4841F6C17137
:104030000AF01EFC994BD3F80C1121F4FF3121F446
:10404000807141EA0421C3F80C11CFE7B1F5007F7C
:1040500004D3904841F6C8710AF00AFC8F4BD3F89C
:10406000181121F4FF3121F4807141EA0421C3F8D1
:104070001811BBE7B1F5007F04D3864841F6D07133
:104080000AF0F6FB854BD3F81C1121F4FF3121F423
:10409000807141EA0421C3F81C11A7E7B1F5007F44
:1040A00004D37C4841F6D7710AF0E2FB0AF08BFC9E
:1040B0007A4BD3F8081121F4FF3121F4807141EAE1
:1040C0000421C3F80811FEF76DFF0446FFF79AFDBF
:1040D00001462046BDE81040FFF7CABD714B98422B
:1040E00074D010D8704B984246D0704B984257D03D
:1040F000A3F57033984226D042F25301BDE8104038
:1041000064480AF0B5BB6A4B984205D0694B9842A7
:1041100073D0694B9842EFD1B4F5004F04D95D4894
:1041200042F245010AF0A4FB2046FFF781FD01465B
:104130000420FFF771FD594AD2F8203123F4E043FF
:1041400043EA013315E0B1F5004F04D9514841F677
:10415000E9710AF08DFB2046FFF76AFD0146042055
:10416000FFF75AFD4D4AD2F8203123F4702343EA79
:104170000143C2F8203139E7022904D941F6FA7126
:1041800044480AF075FB4FF48020FFF745FD434B90
:10419000D3F8301121F003010C43C3F8304125E777
:1041A000B1F5004F04D93B4842F217010AF060FB19
:1041B0002046FFF73DFD01460420FFF72DFD374A5D
:1041C000D2F8203123F00F030B43D2E7B1F5004FB3
:1041D00004D9304842F226010AF04AFB2046FFF794
:1041E00027FD01460420FFF717FD2C4AD2F82031A5
:1041F00023F0F00343EA0113BBE7082904D925485B
:1042000042F235010AF034FB2046FFF711FD01466A
:104210000420FFF701FD214AD2F8203123F4407336
:1042200043EA0123A5E7254B98421DD003F5A113CE
:10423000984247D0224B98425FD1082904D91548AB
:1042400042F25C010AF014FB2046FFF7F1FC014644
:104250004020FFF7E1FC114AD2F8283123F0030394
:104260000B43C2F82831C1E6082904D9094842F2B3
:104270006B010AF0FDFA2046FFF7DAFC0146402008
:10428000FFF7CAFC054AD2F8283123F0300343EA8D
:104290000113E6E7A2F301000148E80100400E40E7
:1042A0003CF4010080161800A009140080061600D6
:1042B00000362C0080262E0080002A0090171C005B
:1042C00090071A00A1F10F03702B04D9324842F273
:1042D0007A010AF0CDFA2046FFF7AAFC01464020F9
:1042E000FFF79AFC2D4AD2F82801043920F44050F7
:1042F00040EA0130C2F8280178E642F28901FDE681
:10430000274B984205D102297FF63DAF42F2930137
:1043100036E742F2A301F1E6224B984205D0224B48
:10432000984212D042F2BC01E8E6032904D91A48A7
:1043300042F2AE010AF09CFA184BD3F85C1121F05E
:1043400003010C43C3F85C4150E6032904D9124829
:1043500042F2B6010AF08CFA104BD3F85C1121F44A
:10436000403141EA0444EDE7B1F5007F04D30A4847
:1043700042F2C4010AF07CFA084BD3F8041121F48C
:10438000FF3121F4807141EA0421C3F804112DE6C4
:1043900042F2CB01B2E600BFA2F3010000400E40A2
:1043A000A0091400B8003200B900340008B507486D
:1043B0000321FFF7CDFD06480321FFF7C9FDBDE846
:1043C000084004480321FFF7C3BD00BF404105007A
:1043D000504107006041090037B5FEF7A9FD0446CA
:1043E000FFF710FC022817D1194B1A481A491C4430
:1043F0009C42B4FBF1F188BF01F1FF310191FFF75D
:10440000A7FD01991548FFF7A3FD0199144803B0D2
:10441000BDE83040FFF79CBD124B134D0D48E2182C
:104420009A42B2FBF5F588BF05F1FF352946FFF743
:104430008FFD0B482946FFF78BFD0C4B0C490748B5
:104440001C449C42B4FBF1F188BF01F1FF31DEE76F
:10445000FF2C310140410500002D31015041070082
:10446000604109007FF0FA0280F0FA02FFA14A04DD
:1044700000A24A0400F00F00013808B50B2879D8D3
:10448000DFE800F006111B2F25397843515F6B6F71
:10449000414BD3F8943003F00703023B052B76D849
:1044A0003E4AD05C30E03C4BD3F8803003F0070349
:1044B000013B032B6DD83A4AF3E7374BD3F88430EE
:1044C00003F00703013B032B63D8364AE9E7324B7D
:1044D000D3F8883003F00703013B032B59D8324A45
:1044E000DFE72D4BD3F88C3003F00703013B032BA0
:1044F0004FD82E4AD5E7284B1B6F13F0030340D04B
:10450000012B14BF0120092008BD234BD3F85C31D7
:1045100003F03003202B36D0302B36D0102B14BFB5
:1045200001200720F0E71C4BD3F85C3103F4401363
:10453000B3F5001F27D0B3F5401F26D0B3F5801F79
:10454000EDE7154BD3F8600100F00300431E022B8A
:104550001DD800EB40000130D6E70F4BD3F86401C3
:10456000F2E70D4BD3F8F03103F00703052B10D819
:104570000F4A96E70F4842F2CA210AF079F9002063
:10458000C2E70720C0E70420BEE70820BCE70520FB
:10459000BAE70120B8E700BF00400E408AF40100EE
:1045A00090F4010094F4010090F4010090F40100F3
:1045B00098F40100A2F3010038B5314B984205464A
:1045C0000BD01ED82F4B984207D02F4B9D4204D0C2
:1045D0002E4841F6DC010AF04BF92846FFF74AFF66
:1045E000274B9D42044625D00DD8264B9D4211D025
:1045F000254B9D421AD0254841F60B110AF038F997
:104600000DE0234BE2E7224B9D42F4D1214BD3F83E
:10461000884002E01F4BD3F8804004F00704042CCC
:1046200027D8DFE804F0240B0F171300194BD3F839
:104630008440F2E7174BD3F88C40EEE7BDE83840F2
:104640000AF010B9BDE83840FEF7E2BCBDE83840DA
:104650000AF00BB9FEF76CFC0E4B0446D3F80001D0
:10466000C0F301600130FFF7B1FAB4FBF0F420466B
:1046700038BD064841F65D110AF0FAF80024F6E765
:104680000400220002001E0003002000A2F301002B
:104690000500240000400E40012808B514BF124850
:1046A0001248FFF7E7FE0138072816D8DFE800F0C8
:1046B0001A1515071515040B0D4B186808BDBDE834
:1046C0000840FEF781BCFEF733FC0A4BD3F80031FB
:1046D000C3F3042303FB0000F0E7074841F2D6616F
:1046E0000AF0C6F80020E9E7B8003200B90034004B
:1046F000E010002000400E40A2F3010038B500F4A5
:104700007813B3F5E01F054600F0FC804CD8B3F5F4
:10471000602F00F0108123D8B3F5C02F00F0A180E6
:104720000DD8B3F5003F00F0A880B3F5802F00F05E
:104730008D80002B00F0078141F6A96109E1B3F5F6
:10474000202F00F09480B3F5402F00F09C80B3F54B
:10475000002FF1D1FEF7ECFBB14BD3F81C317AE01E
:10476000B3F5B01F00F0AA800DD8B3F5901F00F08C
:104770009280B3F5A01F00F09880B3F5801FDBD1C5
:10478000A84B18686CE0B3F5C01F00F0A580B3F526
:10479000D01FD1D1A448FFF70FFFA14B0446D3F897
:1047A000280100F0030092E0B3F5401F00F0B48050
:1047B00024D8B3F5201F00F0BA800FD8B3F5001F3E
:1047C00000F09E80B3F5101F00F0B380B3F5F01F2A
:1047D000B2D19648BDE83840FFF7EEBEB3F5281FCA
:1047E00000F08480B3F5381FA6D19048FFF7E4FEAF
:1047F0008B4BD3F82031C3F3012354E0B3F5601F92
:1048000000F0CF8013D8B3F5501F00F0A780B3F5A8
:10481000581F00F0AC80B3F5481F8DD10020FFF782
:104820003BFF7F4BD3F85C3103F0030315E0B3F596
:10483000681F00F0D080B3F5781F7FF47DAFFEF7DE
:1048400077FB044628460AF0D0F842E0FEF770FBFA
:10485000734BD3F80C31C3F308230133B0FBF3F0EF
:1048600038BDFEF765FB6E4BD3F81831F3E7FEF762
:104870005FFB6B4BD3F80431EDE7FEF759FB684B58
:10488000D3F80831E7E7FEF753FB654BD3F8143153
:10489000C3F30423E1E76548FFF78EFE604BD3F8CE
:1048A0002031C3F30343D840DAE76148FFF784FEC1
:1048B0005B4BD3F8303103F00303F4E75B48FFF7B9
:1048C0007BFE574B0446D3F8200100F00F00FFF7A2
:1048D0007DF9B4FBF0F0C3E75448FFF76DFE504B91
:1048E0000446D3F82001C0F30310F0E74F48FFF768
:1048F00063FE4B4B0446D3F82001C0F30230E6E7D9
:10490000494867E74848FFF757FE454B0446D3F848
:104910002801C0F30110DAE74348FFF74DFE404B92
:104920000446D3F82801C0F301300430CFE74148F2
:1049300050E73F484EE74048FFF79CFD07283FF40B
:104940001FAF092803D1BDE83840FEF7F1BA41F2A4
:104950009F613A4809F08CFF002081E70120FFF7B2
:104960009BFE2F4BD3F85C31C3F3014375E734480A
:10497000FFF780FD0438062810D801A353F820F073
:10498000F5490000054A00009D49000081470000EC
:104990009D4900009D490000F14900004FF4B851C5
:1049A000D7E72848FFF766FD0438062810D801A38A
:1049B00053F820F0F5490000054A0000D1490000F5
:1049C00081470000D1490000D1490000F1490000B1
:1049D00041F23271BDE71C48FFF74CFD023809284F
:1049E0001AD8DFE800F01115070F19191919050B6E
:1049F000164BC6E6BDE83840FEF7E6BAFEF7E4FA25
:104A000040002DE7124BBCE6BDE83840FEF700BB86
:104A1000BDE8384009F026BF41F2897199E700BF2F
:104A200000400E40E01000200300200002001E00A5
:104A3000050024000400220006000E00A2F301007D
:104A40000A7B36000B7C38000C7F3A00E410002013
:104A5000D4100020014B1880704700BF06130020BF
:104A6000014B1880704700BF04130020022838B59E
:104A70000C4604D00D4842F6FC4109F0F9FE0C4DFD
:104A80006B6AC3F30113012B0DD064B1074842F6E2
:104A9000175109F0EDFE074BD5F8902033EA0202DA
:104AA000FAD1012038BD4FF48003F5E7A2F30100ED
:104AB00000400E40FF3F473A05282DE9F0470446E5
:104AC0000F4691461FD83E4B3E4A13F800A03E4B7E
:104AD00013F80080F1B93D4B33F810301366012311
:104AE00003FA08F8D2F8903013EA080FFAD1B9F1B6
:104AF000000F61D00125334A05FA0AF5D2F890304B
:104B00002B42FBD158E0BDE8F047314842F6C831AE
:104B100009F0AEBE2F4B022833F810604ED1536A15
:104B2000C3F30113012B49D12B4BDB6B5B0504D481
:104B3000274842F6D73109F09BFE224A536A03F018
:104B40000303032B05D1536A23F0300343F0200302
:104B50005362224D1B4BA8441E664FEA8808D8F8C2
:104B60000030002BFBD0B9F1000F25D05544AD002B
:104B70002B68002BFCD0022C1ED1EFB1114B5B6ACD
:104B800003F00303032B03D000212046FFF76EFF41
:104B90000F4842F65A4109F06BFE01220021022023
:104BA000FFF78AFF0A4842F6E44109F061FE054B2F
:104BB0001E662B68002BFCD0BDE8F0870027C8E7F5
:104BC0009EF4010000400E40A4F40100B6F4010080
:104BD000A2F30100AAF4010000300E408004F2109C
:104BE00038B5FEF7F1F90021044600F0C1F9144888
:104BF000FEF7A0FF012211460220FFF75DFF09F03A
:104C0000E2FEFFF7D3FB0CB1FEF7EEFF0D4B0222E5
:104C10005A67FEF78DF9FEF78DFFFEF7C3F90546DB
:104C2000FEF7F0FF01462846FFF722F81CB90121E4
:104C3000204600F09DF9BDE83840FFF7CDBB00BF2E
:104C40000148E80100400E4038B504461120FFF746
:104C500011FC042804D11F4842F63C2109F008FE4B
:104C6000012200210220FFF727FFE37A022B2AD836
:104C7000194AD25C194D6B6A23F0030313436B622C
:104C8000FEF7A2F9164B2288984294BF0820002014
:104C90006B6A23F008031843A388686243EAC223BF
:104CA000EB622B6BE2881B0D1B051343628843EA02
:104CB000C2232B63637A227A1B0143EA0233A27A6E
:104CC00013436B6338BD034842F6502109F0D0FD11
:104CD0000022CFE7A2F3010087F4010000400E405C
:104CE00040787D0170B505461120FFF7C3FB02280F
:104CF00004D10F4842F6FA2109F0BAFD0D4E0E4BD1
:104D0000B26B2C7813401C436B7844EAC324AB7815
:104D100044EA0364EB7844EA0324B36BA34205D06E
:104D2000002101220846FFF7C7FEB46370BD00BF33
:104D3000A2F3010000400E4080E4FFF8034B5868E6
:104D4000C0F30800003818BF0120704700ED00E0F4
:104D5000034BD86B80F04000C0F38010704700BF59
:104D600000300E4038B542EA0323B3F5007F054614
:104D70000C463ED019D8B3F5807F36D00AD883B31D
:104D8000012B21D01F4840F63C2109F071FD002283
:104D900013461FE040F201129342F3D11A4BD3F8AD
:104DA00024321A0EC3F3074314E0B3F5407F24D036
:104DB00040F20132934210D040F201229342E1D1FD
:104DC000114BD3F8283202E00F4BD3F82432C3F34F
:104DD0000722DBB22B60226038BD0B4BD3F82832A0
:104DE000DFE7094BD3F81C32F1E7074BD3F81C324D
:104DF000D7E7054BD3F82032E9E7034BD3F820324D
:104E0000CFE700BFFCF401000081E00F08B5FFF719
:104E10009FFF20B1024AD2F8C830002BFBD108BD59
:104E20000000C6431A4B022810B5D3F830320C46A6
:104E300012D0032813D0012814BFDBB2C3F3072319
:104E40001B0323F47042ECB95AB140F6CB11114860
:104E500009F00EFD002010BDC3F30743F0E71B0E61
:104E6000EEE70D49CA6E22F470421343CB6601206F
:104E7000F1E70949D1F8EC2022F470421343C1F85C
:104E8000EC30F4E7002AF4D040F6D711DFE700BF9A
:104E90000081E00FFCF4010000300E400378134A5B
:104EA000002B437870B514BF04260026002B8378AE
:104EB000946914BF02250025002B037924F03F04D8
:104EC00043EA0403C47814BF08210021012C08BF61
:104ED00043F0010333432B430B4393611368417940
:104EE00023F4403343EA0143136070BD00300E40A9
:104EF000F8B504460F46FFF72BFF78B3FFF786FFA0
:104F0000174B5B68C3F301439C4227D0154BD3F882
:104F10000061FEF70DF8022C05460FD1124BC6F3C7
:104F2000042606FB00069E4204D9104840F2627136
:104F300009F09EFC02212846FEF79AFEC4F1020207
:104F400010239340064A13610FB1FFF75FFF2CB99E
:104F500021462846BDE8F840FEF78ABEF8BD00BFEE
:104F600000300E4000400E40002D3101FCF40100E5
:104F700013B50246FFF7ECFEC8B152B90D4B0191D3
:104F8000D3F80041FDF7D4FFC4F30422019902FBDA
:104F90000002094B1B7843B1084B9A4205D8022006
:104FA00002B0BDE81040FFF7A3BF0020F8E702B051
:104FB00010BD00BF00400E400DF80020002D310153
:104FC000174B4AF6E85210B5596B5A639A6FD407DB
:104FD000FCD41B6C13F003031EBF124A0124C2F859
:104FE000B44A834216D00E4B9A6FD207FCD41A6C87
:104FF00022F0030202431A649A6F12F00102FBD1FD
:105000000038084C18BF01200129C4F8B40A08BFB1
:105010005A6303E010B9034BC3F8B40A10BD00BFD4
:1050200000300E400000C6432DE9F04FA0F5E163CB
:1050300089B00024B3F5966FCDE90244CDE904446C
:10504000CDE9064406468A46934605D940F6C53161
:10505000554809F00DFCA3E0B0F5E16F534B8CBF50
:105060000122002249D1D3F81832C3F30721DBB261
:10507000079104934FF416754FF4966748E0BBF11F
:10508000000F0ED0D9F85C2022F4FE4222F002027A
:10509000B6F5E16F42EA012218BF02200243C9F8C7
:1050A0005C20BAF1000F26D020460021FFF7BAFE9F
:1050B000044610B940F62241CAE701214046FFF7F5
:1050C000B1FE044610B940F62A41C1E7384A536E92
:1050D000BD4238BF3D4623F4FF73E72D23F00103A3
:1050E00028BFE725B6F5E16F18BF43F0010343EA97
:1050F0004503536654E0012452E0D3F81832190EE8
:10510000C3F30743079104934FF496654FF4E167A7
:10511000DFF89C90D9F84C400192C4F30174234607
:1051200005A902A8FFF71EFED9F8EC30019AC3F3D7
:105130000128434606A903A8FFF714FE049BF01BB1
:10514000079FF91A4143B1FBF5F299182CBF0123CF
:1051500000238F421ED3EBB9069A039FD31B434310
:10516000B3FBF5F3FF182CBF01230023BA4211D380
:1051700083B9059B029AA3EB020C00FB0CF0B0FB79
:10518000F5F555192CBF01200020AB4202D30028B1
:105190003FF475AF044840F6134109F069FB002461
:1051A000204609B0BDE8F08FFCF401000081E00F5B
:1051B00000300E40334A08B5136FD16C11F0010F67
:1051C00003F0060344D0002B42D0132857D91438DB
:1051D00013288CBF102308232A49013BCA6C1803EB
:1051E00022F47F4240EA03231343CB64264BCA6C6C
:1051F0001B88C2F303222833013202EB820003EB47
:105200005303B3FBF0F3C86C013B072B28BF072304
:1052100020F0EE6040EA036343F48013CB641B4B41
:10522000B3F90030002B12DB03F12800C0F34E036A
:105230000344500800EB4202B3FBF2F20B6D072A65
:1052400028BF072223F0700343EA02120A6508BD53
:10525000D16C01F00101194304D109280FD90A3892
:105260000928B6E7D26CD20702D50BB92728B0E7D8
:10527000074840F6684109F0FBFA0023ACE7042335
:10528000AAE700BF00300E40F82B0020FA2B0020C8
:10529000FCF401000C4BD3F8803910B5044633B947
:1052A000012804D9094840F6864109F0E1FA084A84
:1052B000136F23F0070323431367064BBDE8104029
:1052C0001888FFF777BF00BF0000C643FCF4010059
:1052D00000300E40F62B002038B50389C82B044659
:1052E00004D9514840F66A2109F0C2FAA2882389FC
:1052F0009A4204D94C4840F66B2109F0B9FAB4F946
:105300000C30C82B04DD484840F66C2109F0B0FA97
:105310006378012B55D1A388C82B04D94FF427619A
:10532000414809F0A5FAE28842F210739A4204D982
:105330003D4840F67D2109F09BFAE3884A2B48D985
:10534000B3F5FA7F47D340F6C312934294BF4FF0B0
:1053500000524FF040523549B4F90C00CB6C23F0A9
:10536000405323F001030028A8BF43F00103134377
:10537000CB64D1F8EC30A28843F44073C1F8EC3030
:105380002B4B1A80CB6E43F08073CB66294BD3F83E
:10539000800900B10420FFF77DFF274B2189198088
:1053A000264BB4F90C20A0881A80FFF703FFA37BDB
:1053B000A3B1012B23D01C4840F67C1109F058FA08
:1053C0000FE0022BAFD1A3880A2BACD940F6752190
:1053D000A6E70022BFE74FF08052BCE7134B184A04
:1053E0009A65012260881146FFF71EFE054648B9FE
:1053F0000D4840F6B42109F03BFA284638BD0B4B66
:10540000104AEDE7094AD36B43F48063D3636078B5
:10541000FFF7D6FDA37AA3F1200253425341054A78
:10542000C2F89437E9E700BFFCF4010000300E40F9
:10543000F62B00200000C643F82B0020FA2B00209A
:1054400077402057372110B7082838B504460D4655
:1054500004D84FF6FF73CB40DB0704D4084840F272
:105460002D4109F005FA30230C2013FB040000F154
:105470008C40012100F5082001FA05F5056038BDD2
:1054800052F30100082838B504460D4604D84FF6FB
:10549000FF73CB40DB0704D4084840F2FE3109F02B
:1054A000E7F930230C2013FB040000F188400121B0
:1054B00000F5082001FA05F5056038BD52F301003A
:1054C000072810B5044603D90648522109F0D0F93F
:1054D000054AD2F8443423F003032343C2F844348A
:1054E00010BD00BF47F50100008008400828F8B54E
:1054F00005460C4616461F4604D84FF6FF73CB40B0
:10550000DB0704D419484FF4B07109F0B1F926B1A2
:1055100021462846CFB1FFF797FF05EB4503072C3F
:105520004FEA03134FF00F0112D8A00006FA00F261
:1055300081400F48184409F07AFAAEB9214628464E
:1055400077B1BDE8F840FFF77FBFFFF79BFFE4E7C7
:10555000A4F10800800006FA00F281400548E9E75E
:10556000BDE8F840FFF78EBFF8BD00BF47F501006A
:105570000480084008800840074B0422C3F88020BC
:10558000BFF34F8FBFF36F8F044B0021D9664FF4E9
:10559000EA401962FEF7A6BB00E100E000200040EF
:1055A000172838B505460C4603DD0848772109F071
:1055B0005FF91F2D84F0010403D90548912109F0FA
:1055C00057F9044B2B449B001C6038BD93F5010038
:1055D000DFF50100A001811010B5044618B91B4881
:1055E000912109F045F923781B0613F0604F03D091
:1055F0001648922109F03CF9E378072B03D91348A8
:10560000A32109F035F901214FF4EA40FEF76AFBC6
:10561000B4F8013022785BBA9BB243EA02630C4AC9
:10562000136000231362D36253634FF00043D366C9
:105630004FF0FF339366074A0421C2F88011E378E4
:105640005B01DBB282F80233116010BD93F50100FB
:105650000020004000E100E02DE9F041C3B2012646
:10566000172805460C46904606FA03F603DD3A482D
:10567000EC2109F0FDF81CB93748ED2109F0F8F8E4
:10568000236823F47C1323F00F031BB13248F2216B
:1056900009F0EEF8A37A1B0413F47C0F04D02E4813
:1056A00040F2091109F0E4F8E37A1B0513F07E6F6C
:1056B00004D0294840F20B1109F0DAF8237B5B058E
:1056C00013F0FE5F04D0244840F20D1109F0D0F829
:1056D000224F637BBE66302000FB05702268C0F855
:1056E0008020C0F88830E37AA27A1B0543EA02439F
:1056F000227B43EA425328F00302C0F88430C0F80A
:10570000982009F07EF9FB6E3343FB66237A13B1D0
:105710007B6B33437B63637A13B1FB6A3343FB6276
:105720000E4B1A68237923B1DB431B0263F47F43DA
:105730001A4063790BB142EA0322A3790BB122EA42
:105740000302E3791A43054B1A60054A9662DE6349
:10575000BDE8F04109F05BB993F50100002000407D
:105760000020004410B5C3B20124172804FA03F442
:1057700004DD094840F2971109F07AF809F041F97F
:10578000064AD36E23EA0403D366054B1C62BDE8C8
:10579000104009F03CB900BF93F501000020004023
:1057A0000020004410B5C3B20124172804FA03F402
:1057B00004DD0B4840F2B51109F05AF809F021F95F
:1057C000084B1A6A224209D19B6A34EA03030CBFD0
:1057D0000124002409F01BF9204610BD0024F9E73C
:1057E00093F5010000200040022838B504460D461C
:1057F00003D911484C2109F03BF86B791F2B03D9D1
:105800000D484F2109F034F8AB786A789B0143EAE0
:1058100082032A781343EA7843EA02132A7943EA97
:10582000C2236A7943EA0233AA79043443EA424341
:105830002401024A135138BD2AF601000020064017
:10584000014B1860704700BF0000C44242780179E4
:105850000378002A827870B514BF04260026002A37
:10586000C27814BF10250025002A42794FEA02327F
:1058700042EA012242EA0302837942EA8332C3798F
:1058800014BF20240024002B037A42EA034343EA96
:105890000603427A43EA050314BF4FF40041002196
:1058A0002343002A14BF4FF4003200220B4313435A
:1058B000014A136070BD00BF002006402DE9F04191
:1058C00080460C461F46164622B934484FF4A17153
:1058D00008F0CEFF3CB9324B98450CBF31483248F6
:1058E000FEF70CFF0446402F4BD009D8A7B1202F5C
:1058F0003DD0BDE8F041294840F2891108F0B8BF19
:10590000602FF6D1B6EB940F04D9244840F28311EE
:1059100008F0AEFF042108E0B6EB141F04D91F48BD
:105920004FF4BA7108F0A4FF10214E4371081F4DC7
:1059300001EB4414B4FBF6F6203EB5EBC60F4FEA7C
:10594000C60404D215484FF4D07108F091FFD8F87E
:10595000003023F06003C8F80030D8F800302C4045
:105960001F43C8F80070C8F81440BDE8F081B6EBDA
:10597000D40F04D9094840F2791108F079FF0821C1
:10598000D3E70625B4FBF5F3B34204D203484FF442
:10599000BF7108F06DFF2946C7E700BF76F601002A
:1059A000000801405041070040410500F8FF7F001A
:1059B00038B5164B984204460D4620D003F5806357
:1059C00098421CD003F58063984218D003F5806399
:1059D000984214D003F58063984210D003F5806399
:1059E00098420CD003F53053984208D003F58063F9
:1059F000984204D006484FF4337108F039FFEB4366
:105A00005B0003F00A03E360E56038BD000001407D
:105A100076F6010038B5254B254D984204461ED038
:105A2000A8421CD003F50063984218D003F58063A8
:105A3000984214D003F58063984210D003F5806338
:105A400098420CD003F53053984208D003F5806398
:105A5000984204D0174840F2424108F009FF40F64E
:105A6000AA63E36041F20502002323606260124AE8
:105A7000A3606361E364A2640C4A23669442636793
:105A8000A367E36703D002F50062944200D1236567
:105A90000023AC42A36506D0084A944203D002F525
:105AA0008062944200D1E36538BD00BF0000014030
:105AB0000004014076F60100F9FF0100000C0140EE
:105AC00038B5314B984204460D4620D003F580632B
:105AD00098421CD003F58063984218D003F5806388
