S01A000066696C655F73797374656D5F757067726164652E733337EF
S21400000000100020611E0000B9BB0000B9BB000054
S214000010B9BB0000B9BB0000B9BB0000B9BB00000B
S214000020B9BB0000B9BB0000B9BB0000B9BB0000FB
S214000030B9BB000060C001004B670000AD150000B2
S214000040B9BB0000B9BB0000312A0000B9BB0000F4
S214000050B9BB0000B9BB0000B9BB0000B9BB0000CB
S214000060B9BB0000B9BB0000B9BB0000B9BB0000BB
S214000070B9BB0000B9BB0000B9BB0000B9BB0000AB
S214000080B9BB0000B9BB0000B9BB0000B9BB00009B
S214000090B9BB0000B9BB0000B9BB0000B9BB00008B
S2140000A0B9BB0000B9BB0000B9BB0000B9BB00007B
S2140000B0B9BB0000B9BB0000B9BB0000E983000073
S2140000C0B9BB0000B9BB0000B9BB0000B9BB00005B
S2140000D0B9BB0000B9BB0000B9BB0000151E00008C
S2140000E00FBB0000B9BB0000B9BB0000B9BB0000E5
S2140000F0B9BB0000B9BB0000B9BB0000B9BB00002B
S214000100B9BB0000B9BB0000B9BB0000B9BB00001A
S214000110B9BB0000B9BB0000B9BB0000B9BB00000A
S214000120B9BB0000B9BB0000B9BB0000B9BB0000FA
S214000130B9BB0000B9BB0000B9BB0000B9BB0000EA
S214000140B9BB0000B9BB0000B9BB0000B9BB0000DA
S214000150000000000000000000000000000000009A
S21400016001F0FF01102A2BDB10F0070F08D010F863
S214000170013B013A8B422DD010F0070F42B3F6D167
S214000180F0B441EA012141EA014122F007047FF080
S21400019000070023F0E80256083C85EA010586EAD7
S2140001A0010685FA47F5A3FA87F586FA47F6A5FA13
S2140001B087F68EB9EED1F0BC01F0FF0102F007021F
S2140001C032B110F8013B013A83EA010313B1F8D1CA
S2140001D00020704701387047002D06BF35460338AB
S2140001E0073815F0010F07D1013015F4807F02BFE4
S2140001F0013015F4C03F0130F0BC0138704700BF35
S21400020010B5054C237833B9044B13B10448AFF34B
S21400021000800123237010BD181B00200000000082
S2140002209CCF010008B5034B1BB103490348AFF34D
S214000230008008BD000000001C1B00209CCF0100B1
S214000240A3F5803A704700BF174B002B08BF134B2F
S2140002509D46FFF7F5FF00218B460F461348144ACC
S214000260121A0CF0F4FC0E4B002B00D098470D4BE6
S214000270002B00D098470020002104000D000D48F8
S214000280002802D00C48AFF3008008F067FA200080
S21400029029000BF018FC08F04DFA00BF000008001B
S2140002A00000000000000000001000206411002084
S2140002B0F81801200000000000000000F0B54FF420
S2140002C0484287B03B4800210CF0C1FC3A4B02AADA
S2140002D003F11006154618685968144603C4083317
S2140002E0B3422246F7D13548012229460AF021FDBD
S2140002F0044610B1324808F0CBFB214631482D4E5B
S214000300314F324C08F03EFB4FF448452E4B2B48FD
S214000310402231460AF06CFE3B6822681A4422608E
S214000320ED1A13B14036002DF0D110B1244808F074
S214000330AFFB2168264808F025FB01F03BFE01468E
S214000340244808F01FFB6946002001F09FFE0021AC
S2140003502368184A084601F08FFF01461E4808F039
S21400036011FB01F03BFF10B10A200BF02AFD694695
S214000370002001F08BFE0021084601F007FF014631
S214000380164808F0FFFA4FF4801001F059FE0146B7
S214000390134808F0F7FA002001F0A8FE01461148BD
S2140003A008F0F0FA0A200BF00CFD01F027FE07B06B
S2140003B0F0BD00BFDE280020ABD100006811002091
S2140003C030D1000041D10000341B0020381B002033
S2140003D04DD100005DD1000067D100007AD1000049
S2140003E08CD100009CD1000070B52A4BB4B003AA93
S2140003F003F11006144618685968154603C50833F5
S214000400B3422A46F7D119889B782980AB702249D7
S214000410562208A80CF0F3FB00230B221F488DF889
S2140004207630214601930AF084FC024618B11C4837
S214000430214608F0A7FA5722184801AB08A90AF087
S2140004409BFE024618B11748214608F09BFA13484F
S2140004500BF044F8024618B11348214608F092FA09
S21400046001220E4821460AF064FC024618B10C48E8
S214000470214608F087FA5722084802AB1EA90AF060
S214000480B7FD024618B10748214608F07BFA34B09B
S21400049070BD00BF14D20000D7D300006811002042
S2140004A0BBD10000D8D10000F6D1000010B504463C
S2140004B0074808F067FAD4E90223013302EB830009
S2140004C0BDE8104052F8231050F8040C01F0BAB9F9
S2140004D027D2000008B5094B1968094B18680CF0BC
S2140004E08AF820B907484FF499710BF06CFB064860
S2140004F008F0CEFABDE8084001F028B96C100020DC
S2140005007C1000202FD2000038D2000010B588B929
S214000510094C207882070CD4C30706D5074A084939
S214000520084801F005FA01F05DFB207800F0FE00B7
S214000530207010BD0120FCE750110020404105004E
S214000540801A060000100F4010B9024B187870474A
S2140005500120704750110020F8B50E4615461C467F
S21400056090B98BB10A4B1B78DB070FD4094F29468D
S21400057032463846013C01F0D9FA14F0FF0405F182
S2140005800105F4D12046F8BD0424FBE70324F9E76F
S2140005905011002000100F40F8B50E4615461C46B8
S2140005A0A0B99BB10C4B1B78DA0711D45B0711D4AA
S2140005B00A4F294632463846013C01F0E5FA14F067
S2140005C0FF0405F10105F4D12046F8BD0424FBE73D
S2140005D00324F9E70224F7E75011002000100F402B
S2140005E0D0B9104B187810F0010017D1082913D88D
S2140005F0DFE801F016080C10121212120500012294
S2140006001A7070474FF40073136070474FF400730E
S21400061013807047FF23F7E70420704703207047D6
S214000620084670475011002038B5002303714FF07C
S214000630FF338363044609F0F6FC00284BD1B4F878
S2140006403A524AF655239D4207D126490B2204F119
S2140006503C000CF0C4FA00283FD094F83C30EB2B5A
S21400066003D01833DBB2012B2ED84AF655239D4211
S21400067006D11D49082204F18E000CF0B0FA48B3EA
S214000680B4F84730B3F5007F1ED194F84930DBB19B
S2140006905A1E1A4218D1B4F84A30ABB194F84C300E
S2140006A0013B012B10D8B4F84D306BB1B4F84F3085
S2140006B07F2B06D804F15C0009F092FBB0F5803F72
S2140006C002D3B4F8523053B94AF6552085420CBFCF
S2140006D00220032038BD0420FCE70120FAE70020B2
S2140006E0F8E700BF9ED40000AAD400002DE9F0432E
S2140006F0002385B00B600E46154609F0CCFB00289B
S214000700C0F2B0817F4B53F82040002C00F0AC8143
S2140007103460237805F0FE056BB16078FFF714FFB0
S214000720C60708D41DB110F0040500D00A252846D7
S21400073005B0BDE8F083002360782370FFF7E6FE7F
S214000740C10700F193810DB14207EFD40021204686
S214000750FFF76AFF022840F099806E4604F20223F3
S21400076004F242213246184609F03AFB10338B4217
S21400077042F8040BF7D1002556F8041B00297DD05B
S2140007802046FFF751FF012879D80128A26B40F0D8
S214000790BF8004F1470304F17C0113F8015B002DD0
S2140007A07BD18B42F9D1B4F8A430B3F5807F74D1F5
S2140007B094F8A830092B70D104F1840009F012FBDC
S2140007C04FF0FF33171841F10001BB4275EB0103F0
S2140007D063D304F1900009F003FB94F8AA3020627A
S2140007E0012BE37059D194F8A99003FA09F91FFA7E
S2140007F089F36381002B50D004F1980009F0F0FAD9
S214000800414B9842064648D8831CE361626204F175
S214000810940009F0E5FA00EB0208C4F8308004F111
S2140008208C0009F0DDFA10441FFA89F206FB02F389
S21400083013EB080345EB05029F4271EB0203A0622F
S2140008402BD304F19C0009F0CBFA2E46E06265B982
S2140008506389B34221D9E16A204609F0DEFA81199C
S214000860204609F0E0FB98B90136631993F83C304E
S214000870812B14D02035C5F30805E8E703200135A1
S214000880042D7FF479AF042807D101E0042801D1B4
S21400089001254CE701287FF678AF0D2547E705F1DF
S2140008A0140004F13C06304409F09AFA0128054683
S2140008B0F3D9E3698342F0D96189236B821E02FB78
S2140008C001336363A16A204601EBD51109F0ABFB47
S2140008D00028DDD105F07F0006EB800009F080FAE5
S2140008E0431C03D00135A842ECD0D6E7C4E9050086
S2140008F00425064A2570138801339BB21380E380D3
S214000900002514E73C1B0020FDFFFF7FD0280020B9
S214000910B4F84730B3F5007FBFD1B4F8526026B9BB
S21400092004F1600009F05CFA064694F84C30266242
S214000930591E0129E370B0D894F849506581002DFE
S214000940ABD0691E2942A8D1B4F84D80A4F808801F
S21400095018F00F0FA1D1B4F84F0018B904F15C00DD
S21400096009F03EFAB4F84A10002996D006FB03FEBA
S21400097001EB181CF44460458FD3A0EB0C00A84292
S214000980B0FBF5F389D33E48834286D84FF6F57020
S21400099083426DD903259F1C114402EB0C03032DE3
S2140009A0E7616262A16223634CD1B4F8663053EA11
S2140009B008037FF472AF04F1680009F011FABB0077
S2140009C0E06203F2FF13B6EB532FFFF466AF4FF06F
S2140009D0FF33C4E90533032D4FF08003637188D1DC
S2140009E0B4F86C30012B84D1511C204609F01BFB57
S2140009F000287FF47EAFB4F83A2260714AF6552399
S214000A009A427FF476AF04F13C0009F0E9F91D4BF9
S214000A1098427FF46EAF04F5087009F0E1F903F12F
S214000A20FF5303F50053203398427FF462AF04F57A
S214000A30097009F0D5F9A06104F50A7009F0D0F93B
S214000A40606156E7B8F1000F3FF427AF7144022DFE
S214000A504FEA4703E1621EBFD91907F0010303EB13
S214000A605103AEE70B2562E60C2560E603255EE63D
S214000A7040F6F575AB428CBF022501258BE700BF1B
S214000A80F5FFFF0F525261412DE9F8434FF0FF0882
S214000A9007680646454604244FF6FF79B16B11B940
S214000AA0002C73D063E0384609F0BDFA04460028EF
S214000AB05DD1F06B0378002B6ED03A78042A11D102
S214000AC0852B4DD1336BF364304609F057FF04464F
S214000AD000284CD13B691B7903F03F03B3712046D5
S214000AE0BDE8F883C27AE52B02F03F02B27143D02C
S214000AF02E2B41D022F0200108293DD00F2A40D1CC
S214000B00590637D503F0BF05336B90F80D80F364B4
S214000B10437B434530D1428B72BB0378FC68DFF8D9
S214000B207CE023F040030D21013B4B4301211EF8DE
S214000B3001CB30F80CC009B3FF2B1DD824F813C026
S214000B406146013301320D2AF1D10278520605D5ED
S214000B5021B1FF2B10D8002224F81320013DEDB25E
S214000B600021304609F056FE0446002896D00023A1
S214000B70B363B4E7AB42CBD0FF25F1E7CC45E1D079
S214000B80FAE72DB909F060F9404501D10024A6E73F
S214000B904FF0FF33F364A2E70424E8E7C3D4000071
S214000BA02DE9F04F002187B0D0F80090044609F0F8
S214000BB026FB804670B999F80030042B33D1D9F85B
S214000BC00C0009F097F907462046FFF75DFF05463B
S214000BD020B18046404607B0BDE8F08FD9F8103007
S214000BE09A8CBA42F0D193F823B040265D4506D1E0
S214000BF0D9F80C3033F81530002BE5D1EAE7F106CA
S214000C0008BF0236D9F81030985B00F087FCD9F898
S214000C100C30824633F8150000F080FC8245D3D1B4
S214000C2002360135E2E74FF0FF3B4FF0FF0AC4F80B
S214000C304CB05546A16B484609F0F5F900285CD142
S214000C40E66B3778002F77D0F27AE52F02F03F0375
S214000C50A37103D0120704D50F2B04D0C4F84CB0F0
S214000C604FE00F2B54D194F84B3058063FD47906FA
S214000C7045D5236B96F80DA0E36407F0BF07737B9A
S214000C8053453ED1738B002B3BD13578D9F80C30C9
S214000C90019305F03F050D23013D5D43284B0121DF
S214000CA013F8012BB25A71B3FF2D059329D81046BD
S214000CB0049200F033FC6B1C0293019B039033F804
S214000CC0150000F02BFC039981421AD1049A029D6C
S214000CD0059B11461B4A9342E2D133785A0604D547
S214000CE019B1019B33F815305BB97D1EEDB20021BA
S214000CF0204609F08FFD00289CD080466AE7BD425A
S214000D00BDD0FF25F3E74FF6FF708242E2D0F8E74A
S214000D102DB9304609F098F850453FF45BAF94F88B
S214000D204B30DB079AD40B2204F1400130460BF01F
S214000D3056FF002892D14DE74FF004084AE700BF5F
S214000D40C3D40000D0D400002DE9F04F90F84BB08B
S214000D501BF0A00599B0044640F094810668F2683E
S214000D6032F81530002B60D13378042B40F09D808C
S214000D700F230E352046B5FBF3F5A91C09F0A8FD98
S214000D808146002840F08D80236B0135A3EB451586
S214000D90E379E5645A074AD523F00403E371204655
S214000DA009F08DFB00283ED1616B4FF0FF322046E4
S214000DB009F0EFFA002836D1A368002B37D0236855
S214000DC00493236A0693636AA16A8DF8173004A811
S214000DD023F0FF03CDE90839CDF82C90179109F0E0
S214000DE00EFA00BB04A809F0C9FDE0B9D4E9042353
S214000DF070894FF40071E0FB01233069C4E90423D5
S214000E00383008F0FBFF3069D4E90423283008F0B6
S214000E10F5FFE379326943F0010382F8213004A834
S214000E2009F027FE18B181463BE0013598E7D6E980
S214000E3003544022002120460BF009FF852323702F
S214000E40C02384F82030012100231E4640224FF0A4
S214000E50C10C9E4604EB0108571C04F802C004F8B7
S214000E6007E0F0B2023221B135F8131009B10133B0
S214000E70DBB20F0AA15408F802700232D706F2D18C
S214000E8035F813700136002FE6D184F82330831C22
S214000E906370284609F02EF884F82400000A84F8C7
S214000EA02500484619B0BDE8F08F04F1400797E8E2
S214000EB007000DF1100A1BF0010F8AE8070000F08A
S214000EC0E980402384F84B304FF001089AE8070089
S214000ED0BC46F368ACE803002CF8022BB8F1050F0B
S214000EE04FEA12428CF800205ED9981E424630F82F
S214000EF0021F002946D10DF10F0C072102F00F0941
S214000F0009F13000392888BF09F137000CF80109CB
S214000F10481E96464FEA12124AD0BEF10F0F45D829
S214000F2000F160030DEB03024FF07E0C02F858CC84
S214000F300022A1F1020C904202D9B95C202939D1D5
S214000F4004F13F0C07289CBF00F160030DEB030182
S214000F5002F1010296BF11F8581C20210130072A21
S214000F600CF80210EED92046FFF71AFE814600283C
S214000F7040F08B8008F10108B8F1640FA6D14FF05D
S214000F8007098EE74FF0100C01F0010E0EEB42023F
S214000F90D30344BF82F4883282F02102BCF1010CF4
S214000FA04FEA5101F0D1A2E74246A4E70146A5E781
S214000FB00121B5E780290AD99F2903D92031C9B272
S214000FC01C2904D8944502F10101B9D00A46013221
S214000FD0B1E7216B2046A1EB451109F010F98146D7
S214000FE000287FF45EAF384608F02EFF4FF6FF78F5
S214000FF00190A16B304609F016F8814600287FF470
S21400100050AFE36B019AD6F80CE05A73E9B24FF092
S2140010100F024FF00D0CDA72DFF8DCA018734A1ED0
S2140010200CFB02F29876D87684461AF8019B404567
S21400103018BF3EF8120003F8090003EB090B0CF189
S214001040010C18BF01324FEA1029002808BF40469D
S214001050BCF10D0F8BF80190E7D1404502D03EF869
S21400106012200AB941F040011970012333710021A2
S214001070204609F0CFFB814600287FF412AF013DE1
S214001080B7D11BE04FF006090BE704287FF409AF41
S21400109084F84BB01BF0020F1BBF0C350D21012549
S2140010A0B5FBF1F518BF01352946204609F010FCBE
S2140010B0814600287FF4F5AE013D8AD1A16B30460B
S2140010C008F0B1FF814600287FF4EBAE01462022EF
S2140010D0E06B0BF0BCFD03CFE36B18605960BA7889
S2140010E0398819819A7294F84B30E26B03F0180332
S2140010F0137301233371D4E6C3D400002DE9F04FF7
S21400110085B0036801930446884611F8013B2F2BEF
S214001110FAD05C2BF8D00021A160E16198F800308D
S2140011201F2B00F24B818023204684F84B3005B0FD
S214001130BDE8F04F09F063B801F0E003C02B30D1F2
S21400114001F01F01012301334344904618F8012B98
S21400115002F0C000802840F0608102F03F02434564
S21400116042EA8111F2D1AF4AA1F18003934200F224
S2140011705481A1F55843B3F5006FC0F04E81B1F528
S214001180803FC0F02981A84AA1F5803302EA831384
S214001190C1F30901194339430B0C2BF816300136FD
S2140011A01AE101F0F003E02B03D101F00F01022356
S2140011B0C9E701F0F803F02B40F02F8101F007019A
S2140011C00323C0E7424613782F2B904602F1010214
S2140011D0F9D05C2BF7D01F2B8CBF00250425ABF174
S2140011E00202A6BB00232BF81630002E00F0158155
S2140011F03BF8131020291A4603F10103F8D00AB968
S2140012002E2901D145F00305ABF1020131F8163065
S2140012102E2B01D0013EF9D14FF020334FF00009BC
S21400122063642364C4F847304FF0080A4F463BF81F
S2140012301210531C11B3202903D02E290FD19E4221
S21400124011D045F003051A46F1E70425C7E732F842
S2140012501630202B01D02E2BC4D1013EC1E7D1453C
S21400126005D29E4249D1BAF10B0F3ED102E0BAF147
S2140012700B0F35D145F003054FF00B0A94F84030BC
S214001280E52B04BF052384F84030BAF1080F04BFED
S214001290BF00FFB207F00C030C2B03D007F00303CC
S2140012A0032B01D145F00205AE0707D4F80748BF67
S2140012B045F01005790748BF45F0080584F84B50FF
S2140012C02046FFF76DFC94F84B3000285ED00428CB
S2140012D003D113F0040F08BF052005B0BDE8F08F5A
S2140012E09E4202D045F00305C8D3BF00FFB2334686
S2140012F04FF00B0A4FF00809A5E77F2928D945F0DB
S214001300020208460393029200F008F94FF469714E
S21400131000F0BAF8FF28DDE90223014616D90AF1E3
S214001320FF30814503D345F00305D1468BE704EB38
S21400133009000D0A80F8405009F10109154604EB32
S214001340090209F1010982F840107CE7154678B1D8
S2140013503648CDE902130BF082FCDDE9021338B9FA
S214001360A1F1410292B2192A06D847F00207E6E731
S21400137045F003055F21E2E7A1F1610292B2192A66
S2140013809EBF203947F0010789B2D8E75A07A4D490
S214001390A379DB0643D5019B1878042833D1A368CC
S2140013A023622369E27923F0FF0313436362E36C4D
S2140013B0A362019B2146186909F08AFB23681C4F2B
S2140013C0D3F80CB0DFF86C900026424612F8011BEA
S2140013D00B063FF5B1AE90468DB21F2D7FF635AFAA
S2140013E02F2D3FF4EFAE5C2D3FF4ECAE7F2D04D8EE
S2140013F0294648460BF033FC78B9FE2E0DD82BF85C
S21400140016500136E1E7019B216B3C33C1F308011E
S214001410194409F072FBA060D0E706205DE70520BE
S2140014205BE700BF7FFF10000000FF03BCD4000096
S21400143000DC00D8B3D400001FB5CDE9001003A827
S2140014401446039108F027FD002818DB0D4A52F8D1
S21400145020301BB1002142F820101970019B23B1E7
S21400146000215870197042F820302CB1002201A9D2
S2140014706846FFF73BF90446204604B010BD0B242F
S214001480FAE700BF3C1B00207F28F0B501D880B2E9
S214001490F0BDB0F5803F16D2B1F5697F13D10C4E82
S2140014A083B241F6DD4410200021621A01EB52029D
S2140014B0950036F822709F4207D02CBF144611467E
S2140014C00138F2D1E4E70020E2E7024BE85ADFE712
S2140014D0F64A0100F84A01007F28F0B515D9B1F5A3
S2140014E0697F11D10B4E102241F6DD440021631AAC
S2140014F001EB53039D0036F82370874206D034BFB5
S21400150019461C46013AF2D10020F0BD024BE85ABB
S214001510FBE700BF7ED7000080D70000B0F5803F15
S214001520F0B522D21F4A204983B2B0F5805F28BFAB
S2140015300A46141D34F8042C2146AAB1934213D34C
S21400154034F8025C2E0AEFB252FA85F5A84222DA87
S214001550082E09D8DFE806F0050A10121416181A25
S2140015601C00801A34F810301846F0BD981A00F0A7
S21400157001001B1A9BB2F7E7103BFBE7203BF9E79D
S214001580303BF7E71A3BF5E70833F3E7503BF1E764
S214001590A3F5E353EEE70434002ECBD101EB47026C
S2140015A0C7E700BFD0D40000C2D60000024A1368C6
S2140015B001331360704700BF7C1D00200048704751
S2140015C00000413810B52048012101F043FB0422F9
S2140015D010460123072102F041FF1C4B8022C3F86E
S2140015E0CC200122104600230A2102F037FF0023F8
S2140015F005220F21042002F031FF012305220E21CF
S214001600042002F02BFF002108460123052202F0E9
S21400161025FF012319460522002002F01FFF0123A3
S21400162005220221002002F019FF012305220321D2
S214001630002002F013FFBDE8104000230522092118
S214001640012002F00BBF00BF00550A0000800846CC
S2140016502DE9F04395B001460646684609F04BFF73
S214001660044600285ED1314DDFF8DC8005F11A070C
S2140016702E49684609F0A2FF044600284FD1AC7EEA
S214001680002C4CD02B7BDB062AD530460BF006FB15
S2140016903A4627498146301807F0D8FA3946254891
S2140016A007F070F92A892448510A02F01F0301F254
S2140016B0BC71C2F3431207F065F969891F4801F04F
S2140016C01F03C1F345125B00C90A07F05BF900214E
S2140016D03046FFF7BDFF044608BB06F80900C7E71B
S2140016E03A463146404607F04DF92A891248510AD3
S2140016F002F01F0301F2BC71C2F3431207F042F975
S21400170069890F4801F01F03C1F345125B00C90A3F
S21400171007F038F929680B4807F034F9A8E7684657
S21400172009F043FF204615B0BDE8F083B81300204B
S2140017306EBE010073BE01007CBE01008DBE0100BE
S214001740ACBE0100BDBE01009DBE010010B50B4839
S214001750012101F07FFAFFF735FF09490948002209
S214001760FFF76AFE044628B10146074807F00AF963
S214001770204610BD054807F08BF9F9E74041050003
S214001780F5CA0100401B0020C2BE0100D8BE010001
S21400179010B50B49002007F079FA044628B109492C
S2140017A00BF06AFAB0FA80F46409074907480BF0B0
S2140017B06DFA21460548FFF74BFF002010BD00BF1D
S2140017C0B1D40000EDBE0100F5CA010062F40020AD
S2140017D038B5054638B9094807F05AF9084807F0F9
S2140017E0D1F8204638BD09F021FF04460028F8D07D
S2140017F002462946034807F0C5F8F2E7F0BE0100A6
S21400180006BF010017BF010038B5054640B90A48B3
S21400181007F03EF9094807F03BF90124204638BD99
S21400182009F07EFF04460028F8D002462946044800
S21400183007F0A8F8F2E700BF2FBF010050BF010075
S21400184065BF010070B50E46054600B129B90948C6
S21400185007F098F80124204670BD0AF02AF80446DE
S2140018600028F8D0034632462946034807F08AF88F
S214001870F1E700BF80BF010096BF010010B5446AC3
S21400188014F00104FBD1072902D1436A9B07FCD45C
S2140018908260C36823F4403300293FD037293AD00A
S2140018A0182907D8214ACA40D20734D407292CD091
S2140018B002292DD029292ED008292FD84FF494722A
S2140018C0CA4012F0010F14BF4FF400320022134337
S2140018D0082914BF00224FF4C01223F4601307290E
S2140018E043EA02031CD00C2908BF4FF4001423431C
S2140018F023F07F5343EA0161C160036BDA07FCD52E
S2140019000122036BDB070ED410BD4FF44032DEE736
S2140019104FF48032DBE74FF40032D8E70022D6E7F8
S2140019204FF40014E3E70263EBE700BF4020020138
S214001930F7B504460D4672480121164601F08AF9AD
S214001940704BC4F81C380123C4F820383F23C4F871
S21400195024384FF40863C4F800386B4BC4F80438D6
S2140019606A4BC4F808386A4BC4F80C38694BC4F89C
S2140019701038A3F54433C4F81438674BC4F8183845
S214001980664B6363304601F071FEB0FBF5F0000273
S21400199040F60253002240F00500E0621146A362C2
S2140019A02046FFF76BFF4FF4807208212569FFF78A
S2140019B065FF23699D425A4D36D1AB786FF3C3035A
S2140019C0AB70AA7823696FF3041212F00806AA70A7
S2140019D04DD0002237212046FFF750FF0022292154
S2140019E02669FFF74BFF23699E420DD04D4E2369B3
S2140019F0002B26DAAB7813F0200F2B780CBF0222D0
S214001A00032262F302032B70002202212046FFF716
S214001A1035FF00220321FFF731FF23692A681B0CDC
S214001A2063F3D2022A6052E0236B99034FD4236BF0
S214001A301A034CD42369DB0549D5AB7843F0080379
S214001A40BEE7002237212046FFF718FF324629213D
S214001A50FFF714FF2369AA789B0F63F345122369E7
S214001A60AA701B0ED2B263F38612AA70BFE7324684
S214001A7037212046FFF702FF324629212769FFF764
S214001A80FDFE23699F421ED0274E2369002BBBDB39
S214001A90002237212046FFF7F1FE4FF400222921CD
S214001AA0FFF7ECFE2369AA789B0F63F345122369C0
S214001AB0AA702A689B0803F4800343F001033240AF
S214001AC013432B60E1E72B7866F302032B702A683A
S214001AD0C2F3CF02204612040D210192FFF7CEFE7C
S214001AE0019A0721FFF7CAFE019A3721FFF7C6FEC3
S214001AF00222062103B0BDE8F040FFF7BFBE00BFDC
S214001B000045020001030001201CBA7FFA230500ED
S214001B1000000418021004080010021833003A00EF
S214001B20801D002000000851F8FFBFFFC36A43F481
S214001B307E03C3620123036320230363022303633C
S214001B40436843F4007343600E4B8160C360036BCD
S214001B50DB07FCD501230363036B9906FCD5202322
S214001B60036302F50073016A42F8041B9342FAD13C
S214001B70036B9A07FCD50222036B9B0700D47047C1
S214001B800263F9E710002211C36A43F47E03C362BE
S214001B90012303631023036302230363436843F4B0
S214001BA0007343600E4B8160C360036BDB07FCD59C
S214001BB001230363036BD906FCD51023036302F5E8
S214001BC0007352F8041B01629342FAD1036B9A0722
S214001BD0FCD50222036B9B0700D470470263F9E72B
S214001BE000002218024B187800F00700704700BF6C
S214001BF0801D002030B5124C124B2268124D1A6020
S214001C008BB0124B2B60124B009305F061FC2B68D7
S214001C100293104B0393104B0493104B05934FF411
S214001C20C8621923CDE9062300213223CDE9081323
S214001C3001906946206804F0E1FE0BB030BD00BF9D
S214001C407C100020A8280020A42800207010002067
S214001C50B1BF0100501E0020881D0020D8140020AF
S214001C6038B501F075FF1248124C012100F0F2FF62
S214001C7001221146002001F0D7FE0225012211465E
S214001C80C4F88050002001F0CFFE01221146C4F8AF
S214001C908450002001F0C8FE0122C4F88C50114682
S214001CA0002001F0C1FEC4F88850002038BD00BFF7
S214001CB030053E0000400E4008B54FF0804301223C
S214001CC05A6403F564231E49D3F8B02042F001029B
S214001CD0C3F8B020D3F8E02042F00802C3F8E020B2
S214001CE04A6B42F480524A63D3F8E02022F008029E
S214001CF0C3F8E020D3F8B02022F00102C3F8B020E9
S214001D00104AD2F8A43143F4F843C2F8A43105F0DF
S214001D108BFB00F09FF805F02BFB05F071FB05F040
S214001D203DFBFFF79DFF0AF05AFE00F087F800F033
S214001D3041F90AF03DF8BDE8084002F073BF00BF65
S214001D400040054000300E4030B5214D0FCD97B015
S214001D500FAC0FC495E807001E4B84E807001E4A28
S214001D601E49CDE903231E4B059303F10423069376
S214001D700423CDE90713102200210BA80AF067FF01
S214001D80184B4FF48010CDE9090327238DF82C302B
S214001D9028238DF82D30144B0C9320230D9301230C
S214001DA08DF83930114B0093114803AB0FAA09A9DF
S214001DB005F07EFF044618B10E48882109F003FF9F
S214001DC000214FF4E13009F0E8FE204617B030BDA0
S214001DD0F4BF010000B20400001001400004040437
S214001DE0070407051C100140C6F40020102100203F
S214001DF0B8210020C3BF010008B5FFF7A5FF28B132
S214001E00BDE808400248B82109F0DDBE08BD00BFA5
S214001E10C3BF0100014806F003B800BFB821002088
S214001E2008B5044809F04BFFBDE80840024809F031
S214001E3046BF00BF10C0010028C0010008B5044816
S214001E40012100F007FFBDE8084009F045BE00BFCD
S214001E5000550A000148012100F0FCBE00550A00AA
S214001E6008B500F093F8124B12498B4212D3124B6E
S214001E70124900208B4218D3FEF7E6F9186850F88E
S214001E802240586840F82240013298688242F5D3D2
S214001E900C33EAE70022F8E71C6844F82200013217
S214001EA05C68A242F8D30833E4E70022F8E700BFF4
S214001EB0A4CF0100B0CF0100B0CF0100B0CF010029
S214001EC00048704700A24A04174AD2F8943003F03C
S214001ED00703023B042B1FD8DFE803F00620031A93
S214001EE00800124B1B680AE0114BFBE79368C3F32C
S214001EF00443073B072B14D80E4A52F823300A4AED
S214001F00D2F80001C0F304200130B3FBF0F07047B4
S214001F10094B1B685B08F2E7074BE3E74FF4004307
S214001F20EDE70023EBE700BF00400E408C100020DA
S214001F308410002040C001008810002008B5FFF77C
S214001F40C3FF054BD3F80831C3F308230133B0FBB6
S214001F50F3F0024B186008BD00400E4080100020D1
S214001F60014B1868704700BF84100020054B1860AE
S214001F70054BD3F8943003F00703022B01D1FFF78B
S214001F80DDBF70478410002000400E40044B054A19
S214001F909A60D3F8882042F47002C3F8882070470D
S214001FA000ED00E000000000014B1868704700BF1D
S214001FB08C1000200E4B9B6A03F1F02202F5F01203
S214001FC0B2F5E04F10B50ED219680A4A91420AD10E
S214001FD0094C227812F0FD0F08D1DB69984708B942
S214001FE00123237010BD4FF48170FBE70020F9E752
S214001FF00010E10F07B0CD5EE6F400204FF000536E
S2140020000B4A1A600B4A01239360136823F4E063BB
S21400201043F480631360BFF34F8F0749074BCA68CA
S21400202002F4E0621343CB60BFF34F8F00BFFDE7BF
S21400203002020FF000500E4000ED00E00400FA052A
S214002040064B9A6A02F1F02303F5F013B3F5E04F5E
S21400205001D2536A18470020704700BF0010E10FF6
S214002060094B9A6A02F1F02303F5F013B3F5E04F3B
S21400207009D2126B02F1F02303F5F013B3F5E04F2B
S21400208001D25368184770470010E10F0A4B9A6A4E
S21400209002F1F02303F5F013B3F5E04F09D2126B0B
S2140020A002F1F02303F5F013B3F5E04F01D2936885
S2140020B018474FF4817070470010E10F0A4B9A6A78
S2140020C002F1F02303F5F013B3F5E04F09D2126BDB
S2140020D002F1F02303F5F013B3F5E04F01D2536994
S2140020E018474FF4817070470010E10F0E4B07B58C
S2140020F09A6A019002F1F02303F5F013B3F5E04F6E
S2140021000ED2126B02F1F02303F5F013B3F5E04F95
S21400211006D29369012101A8984703B05DF804FB35
S2140021204FF48170F9E700BF0010E10F0A4B10B4BE
S2140021309C6A04F1F02303F5F013B3F5E04F05D2E3
S214002140236B1BB15B6A5DF8044B18474FF40170B4
S2140021505DF8044B704700BF0010E10F0A4B9A6A07
S21400216002F1F02303F5F013B3F5E04F09D2126B3A
S21400217002F1F02303F5F013B3F5E04F01D2936AB2
S21400218018474FF4017070470010E10F124B70B5FE
S2140021909B6A03F1F02303F5F013B3F5E04FE0B0CC
S2140021A00D4616D24FF4C0726946FFF7BFFF0446CD
S2140021B060B940F2012629466846FFF7CFFFB042D5
S2140021C0F9D040F20323984218BF0446204660B078
S2140021D070BD4FF40174F9E70010E10F0A4B9A6ADC
S2140021E002F1F02303F5F013B3F5E04F09D2126BBA
S2140021F002F1F02303F5F013B3F5E04F01D2136BB1
S21400220018470120704700BF0010E10F0D4B10B4B7
S2140022109C6A04F1F02303F5F013B3F5E04F0BD2FC
S214002220246B04F1F02303F5F013B3F5E04F03D26B
S214002230A36B5DF8044B184740F201105DF8044BA1
S214002240704700BF0010E10F0A4B9A6A02F1F023B4
S21400225003F5F013B3F5E04F09D2126B02F1F02349
S21400226003F5F013B3F5E04F01D2D36B184740F2F5
S214002270011070470010E10F2DE9F0439946334BEB
S21400228017469A6A02F1F02303F5F013B3F5E04F10
S21400229091B005460E464FD2136B03F1F02303F5BB
S2140022A0F013B3F5E04F47D203A8FFF7D9FE079B1C
S2140022B0DC68A3B2002B42D001A92846FFF7E6FE51
S2140022C000BB029B06EB09059D423BD8A1B2B6FBBC
S2140022D0F1F401FB1463DDF80480D3B1B5FBF1F231
S2140022E04C4201FB125204EA060001EB080C62B1F4
S2140022F02C40211A6044D1B94A46394608EB0600FC
S214002300FFF784FF11B0BDE8F083A9EB0104E118E4
S214002310F0E7B9FBF1F301FB139308EB060023B1DA
S2140023204C4204EA09042144E5E74946E3E7FFF79F
S2140023308BFF0028E0D0E5E74FF48170E2E740F23B
S2140023400140DFE740F20240DCE700BF0010E10F8B
S21400235038B504460D4601B118B90448372109F0CE
S21400236032FC23682B60256038BD00BFB0C001007A
S21400237070B5D0B1C9B10E4E431E013913F8014FE6
S214002380A25D02F00302012A11F8012FB55C05F0E8
S2140023900305204608BF04F12000012D08BF2032A7
S2140023A0801A01D1002CE9D170BD0120FCE700BFE6
S2140023B02ECD010005490A681318054883428CBFD4
S2140023C04FF0FF320B601046704700BF90100020A1
S2140023D00000082008B52948012100F03BFC012335
S2140023E004220221052002F039F8002002F020F82D
S2140023F0234B0122C3F810281146042001F014FBD9
S214002400204801F033F9204BD3F8F02042F00102C7
S214002410C3F8F020D3F8FC2042F08072C3F8FC200A
S214002420A3F55D43194A1A6000F5D520184B00F253
S214002430FC40B0FBF3F0174B013802221861C3F8DA
S214002440F0204FF48072C3F804234FF06043124A22
S214002450C3F8B02F114AC3F8802ED3F8002E42F4EA
S2140024608072C3F8002EFF2283F82020D3F8002EB7
S21400247022F48072C3F8002E002008BD00550A0022
S2140024800080104306000E0000ED00E0FF03004051
S214002490F8590D00000004E055CEACC50900010057
S2140024A04FF0604330B5D3F8802ED20715D50124FF
S2140024B00B4D8440D5F8FC2042F08072C5F8FC2015
S2140024C0D3F8002E2243C3F8002E53F82020002A0B
S2140024D0F0D003F82010002030BD1120FCE700BF2C
S2140024E000ED00E0082838B504460D4604D84FF63F
S2140024F0FF73CB40DB0704D4084840F2FE3109F0F6
S21400250062FB30230C2013FB040000F188400121FD
S21400251000F5082001FA05F5056038BDFEC001008B
S214002520082838B504460D4604D84FF6FF73CB404E
S214002530DB0704D4084840F22D4109F044FB302361
S2140025400C2013FB040000F18C40012100F508204C
S21400255001FA05F5056038BDFEC0010010B5012181
S2140025600446094800F076FB0848012100F072FB9B
S214002570A37820786178B3FA83F35B09042201F02C
S2140025806DFF002010BD00BF4041050000550A0049
S21400259038B504784578082C04D84FF6FF73EB401E
S2140025A0DB0704D407484FF4896109F00CFB30239D
S2140025B0634303F18043012203F50823AA409A618E
S2140025C038BD00BFFEC0010070B506784478082EFE
S2140025D0054604D84FF6FF72E240D30704D40C48F1
S2140025E04FF4836109F0EFFA30230C2213FB062325
S2140025F003F1067303F5004304EBC304A400AB78B1
S2140026002068C0B213B9B0FA80F0400970BD00BFB0
S214002610FEC001002DE9F04F9A46554B85B01B7859
S214002620DDF83C909DF844B0DDF8508006460F4635
S2140026301546002B00F08B80172A00F28A800E9B2E
S214002640002B00F08680B9F1000F00F08280129B0C
S214002650B3F5006F7DDC012802D1109B002B78D0EB
S214002660444B03EB05131B7B002B74D0424C10220B
S214002670002168460AF0EBFA04EB45141022002FFE
S21400268057D1394620460AF0E2FA43F21003638037
S214002690BBF1000F03D1E37843F00303E370364A3F
S2140026A00E9BCDF800A002EB451CCCE90193129BD3
S2140026B0013BC3F30A009DF84C30690103F00303A5
S2140026C09B0643EA001E53582C4818404EEA000367
S2140026D0012E535041D11323CCF80C309CE80F0048
S2140026E00CF1100E8EE80F00DCF81C20109BCCF8C6
S2140026F014306FF0030161F39F02012FCCF81C2009
S21400270003D1CCF81890CCF804301A4A290102EB11
S214002710051342F801800027159A5A6028469F60E4
S2140027205E732246694601F04FFF384605B0BDE8A5
S214002730F08F002120460AF08AFA4FF44473638033
S214002740BBF1000FABD1E37843F03003A6E70C48AB
S214002750ECE70C48EAE70C48E8E7B8F1000FD4D1FC
S2140027609CF8023068F304138CF80230CDE700BF03
S214002770E7F40020D8210020582300200F80FFF324
S214002780028000F0018000F0078000F038B5124BA0
S2140027901B780546DBB1E0B109F0DEFA0F4A0023EC
S2140027A01146147B54B92B601A0101EB0313012563
S2140027B08C501D7309F0D6FA204638BD0133182B0D
S2140027C002F11002EDD109F0CDFA0548F5E705480B
S2140027D0F3E70548F1E700BFE7F40020D821002022
S2140027E0048000F0028000F0018000F013B509F0CC
S2140027F0B3FA0C4A0023147B7CB90133182B02F180
S2140028001002F8D1019001F06FFE074B01981C7082
S21400281009F0A8FA204602B010BD09F0A3FA034852
S214002820F9E700BFD8210020E7F40020058000F07B
S2140028300D4B1B7810B5044693B1172812D809F033
S2140028408BFA0A4B03EB04131A7B2AB100241C7381
S21400285009F088FA204610BD09F084FA0448FAE721
S2140028600448F8E70448F6E7E7F40020D8210020FB
S214002870068000F0028000F0018000F013B5134BD4
S2140028801868019000238DF8043009F065FA104BA3
S2140028901C7824B109F066FA0E4802B010BD012279
S2140028A01A7009F05FFA0C4A234621460133182BAA
S2140028B0117302F11002F9D104230DEB03008DF819
S2140028C0073001F041FE0020E7E700BF4AC10100E3
S2140028D0E7F40020038000F0D82100200A4A12788E
S2140028E008B55AB117280BD8084A02EB00131B7B11
S2140028F043B1002101F00CFE002008BD0448FCE7AF
S2140029000448FAE70448F8E7E7F40020D821002056
S214002910028000F0018000F0078000F00A4A12787A
S21400292008B55AB117280BD8084A02EB00131B7BD0
S21400293043B1012101F0ECFD002008BD0448FCE78E
S2140029400448FAE70448F8E7E7F40020D821002016
S214002950028000F0018000F0078000F00A4A12783A
S21400296008B552B117280AD8084A02EB00131B7B99
S2140029703BB101F0AFFE002008BD0548FCE7054866
S214002980FAE70548F8E700BFE7F40020D821002062
S214002990028000F0018000F0078000F00D4B1B78ED
S2140029A093B1172812D889B10B4B03EB00131B7B8E
S2140029B073B10A4B1A6E012303FA00F010401ABFD7
S2140029C000200B7008707047054870470548704730
S2140029D005487047E7F40020D8210020002000407A
S2140029E0028000F0018000F0078000F00B4A1278A9
S2140029F010B50C4662B117280CD859B1084A02EB3C
S214002A0000131B7B43B101F085FE2070002010BD33
S214002A100448FCE70448FAE70448F8E7E7F400202F
S214002A20D8210020028000F0018000F0078000F02E
S214002A302DE9F843DFF86480D8F86070D8F86C3079
S214002A401F4000D5FEE7144CDFF854900126002501
S214002A50374217D02368C8F868609BB1A1686268DF
S214002A600131A16028469847637B012B0AD148B9FB
S214002A7009EB45131A7B60F341021A731A7F60F361
S214002A8041021A770135182D4FEA460604F1100464
S214002A90DED1BDE8F88300BFD8210020002000402A
S214002AA0582300200C4B984210D90C4B984210D952
S214002AB0022201230A490B640A49D1F8003123F0A7
S214002AC0407343EA0263C1F80031704700221346A0
S214002AD0F0E70122FBE700BF0048E8010090D003C2
S214002AE00000C84300400E4038B54FF08043002237
S214002AF05B68104BC9B21C461D798D4202D11D6819
S214002B00854213D20132072A03F10803F4D10A489A
S214002B1041F2DD7109F057F803224FF080414B680F
S214002B2023F0407343EA02634B6038BD04EBC202F5
S214002B305279F2E770C201004EC101001F2810B59D
S214002B40044604D903484FF4B67109F03CF8012056
S214002B50A04010BD99C10100044BDB6B5B0604D49A
S214002B60034AD2F8C830002BFBD1704700300E4025
S214002B700000C64308B5FFF7EFFF024B5868C0F3E6
S214002B80014008BD00300E40044BD3F84421D20764
S214002B9003D4D3F840211042FBD1704700400E40CA
S214002BA0B0F5004F38B5054604D30C4840F64A61E8
S214002BB009F009F86C1C14BFB4FA84F42024C4F19C
S214002BC01F042046FFF7BAFF0138A84204D0034886
S214002BD040F6516108F0F7FF204638BDE8C1010015
S214002BE04FF0804341F6713270B51E6C1A6405468C
S214002BF00C46FFF779FF134A134B022C08BF134607
S214002C009D42124AB6B209D94FF08C43C3F8002150
S214002C100F4A954207D84FF0884306E04FF08843A6
S214002C20C3F80021F7E7002CF5D14FF480521A6064
S214002C3041F671339E421EBF4FF0804300221A6455
S214002C4070BD00BF0024F40080D5430202020200DB
S214002C5080F0FA02C0F30322013A38B503460E2A82
S214002C603AD8DFE802F040433939081B1E212536E2
S214002C70292E391833001F4C0020C3F3043508B141
S214002C80FFF782FF04F1424404F5801405EBC40408
S214002C90A400216038BD184C0020EEE7174C012038
S214002CA0EBE7174C1020E8E7164C4FF48070E4E78B
S214002CB0154C4FF48030E0E7144C81F00101002001
S214002CC0DBE7134C81F001010020D6E7114C002011
S214002CD0D3E7114C0020D0E7BDE838400F4841F656
S214002CE0795108F070BF0E4C0020C6E70D4C00204E
S214002CF0C3E700BFB0400E40C4400E40E0400E4068
S214002D00E8400E40EC400E40F0400E4060410E4061
S214002D1064410E40F0410E4050410E404EC101004D
S214002D2000400E40C0400E4008B5C0F30313013B00
S214002D300B2B00F2AB80DFE803F0060C101A202401
S214002D40282C668692A5534BD3F80001C0F30420C6
S214002D5008BD504BD3F81401F8E74E4BD3F80001EA
S214002D60C0F301600130FFF7E9FE0138F0E7494B98
S214002D70D3F80C01C0F30820EAE7464BD3F8180155
S214002D80F8E7444BD3F81C01F4E7424BD3F80801AC
S214002D90F0E7414B98422AD00ED8A3F5BA239842C2
S214002DA02BD003F57033984215D041F61D713B4881
S214002DB008F009FF0020CBE7394B984205D0394B85
S214002DC098420ED0384B9842EFD1324BD3F82001C0
S214002DD0C0F30230C7E72F4BD3F8200100F00F00F6
S214002DE0C1E72C4BD3F82001C0F30120BBE7294BE9
S214002DF0D3F82001C0F30310B5E7264BD3F8200123
S214002E00C0F30340AFE7294B98420CD003F5A1135B
S214002E1098420ED0264B984212D11E4BD3F828016A
S214002E2000F003009FE71B4BD3F82801C0F3011006
S214002E3099E7184BD3F82801C0F30130043092E725
S214002E4041F64171B3E71B4B984205D1114BD3F8BD
S214002E50300100F003007BE741F65071A7E7164B00
S214002E60984205D0154B984206D041F668719EE709
S214002E70084BD3F85C01ECE7064BD3F85C01C0F3D3
S214002E80014065E7034BD3F8040173E741F675711B
S214002E908DE700BF00400E40801618004EC10100AE
S214002EA000362C0080262E0080002A0090171C007A
S214002EB090071A00A0091400B8003200B9003400C8
S214002EC0C0F30313013B10B50C460B2B00F218821F
S214002ED0DFE813F00C003400450060007400880042
S214002EE09C00BC006101CE01DA0102021F2904D950
S214002EF0C44841F69E7108F066FE08F00FFFC2480F
S214002F00FFF7D0FD00F00AFAC04BD3F8001121F409
S214002F10F85141EA0424C3F80041FFF70FF80446CD
S214002F20FFF728FE01462046FFF75AFEFEF7CCFFC5
S214002F30FFF7B8FDBDE8104000F006BA1F2904D917
S214002F40B04841F6B47108F03EFEB04BD3F8141109
S214002F5021F4F85141EA0424C3F8144110BD4B1E75
S214002F60B3F5004F0DD2B4FA84F1A84BD3F8004164
S214002F70C1F11F0124F0407444EA0164C3F8004123
S214002F80ECE7A34840F65A5108F01DFE002CEAD1A3
S214002F902021EAE7B1F5007F04D39A4841F6C171D3
S214002FA008F011FE994BD3F80C1121F4FF3121F4EF
S214002FB0807141EA0421C3F80C11CFE7B1F5007F18
S214002FC004D3904841F6C87108F0FDFD8F4BD3F846
S214002FD0181121F4FF3121F4807141EA0421C3F86D
S214002FE01811BBE7B1F5007F04D3864841F6D071CF
S214002FF008F0E9FD854BD3F81C1121F4FF3121F4CC
S214003000807141EA0421C3F81C11A7E7B1F5007FDF
S21400301004D37C4841F6D77108F0D5FD08F07EFE53
S2140030207A4BD3F8081121F4FF3121F4807141EA7C
S2140030300421C3F80811FEF781FF0446FFF79AFD46
S21400304001462046BDE81040FFF7CABD714B9842C6
S21400305074D010D8704B984246D0704B984257D0D8
S214003060A3F57033984226D042F25301BDE81040D3
S214003070644808F0A8BD6A4B984205D0694B984250
S21400308073D0694B9842EFD1B4F5004F04D95D4830
S21400309042F2450108F097FD2046FFF781FD014604
S2140030A00420FFF771FD594AD2F8203123F4E0439B
S2140030B043EA013315E0B1F5004F04D9514841F613
S2140030C0E97108F080FD2046FFF76AFD01460420FE
S2140030D0FFF75AFD4D4AD2F8203123F4702343EA15
S2140030E00143C2F8203139E7022904D941F6FA71C2
S2140030F0444808F068FD4FF48020FFF745FD434B39
S214003100D3F8301121F003010C43C3F8304125E712
S214003110B1F5004F04D93B4842F2170108F053FDC1
S2140031202046FFF73DFD01460420FFF72DFD374AF8
S214003130D2F8203123F00F030B43D2E7B1F5004F4E
S21400314004D9304842F2260108F03DFD2046FFF73C
S21400315027FD01460420FFF717FD2C4AD2F8203140
S21400316023F0F00343EA0113BBE7082904D92548F6
S21400317042F2350108F027FD2046FFF711FD014613
S2140031800420FFF701FD214AD2F8203123F44073D2
S21400319043EA0123A5E7254B98421DD003F5A1136A
S2140031A0984247D0224B98425FD1082904D9154847
S2140031B042F25C0108F007FD2046FFF7F1FC0146ED
S2140031C04020FFF7E1FC114AD2F8283123F0030330
S2140031D00B43C2F82831C1E6082904D9094842F24F
S2140031E06B0108F0F0FC2046FFF7DAFC01464020B1
S2140031F0FFF7CAFC054AD2F8283123F0300343EA29
S2140032000113E6E74EC101000148E80100400E4008
S214003210E8C1010080161800A009140080061600F8
S21400322000362C0080262E0080002A0090171C00F6
S21400323090071A00A1F10F03702B04D9324842F20E
S2140032407A0108F0C0FC2046FFF7AAFC01464020A1
S214003250FFF79AFC2D4AD2F82801043920F4405092
S21400326040EA0130C2F8280178E642F28901FDE61C
S214003270274B984205D102297FF63DAF42F29301D3
S21400328036E742F2A301F1E6224B984205D0224BE4
S214003290984212D042F2BC01E8E6032904D91A4843
S2140032A042F2AE0108F08FFC184BD3F85C1121F007
S2140032B003010C43C3F85C4150E6032904D91248C5
S2140032C042F2B60108F07FFC104BD3F85C1121F4F3
S2140032D0403141EA0444EDE7B1F5007F04D30A48E3
S2140032E042F2C40108F06FFC084BD3F8041121F435
S2140032F0FF3121F4807141EA0421C3F804112DE660
S21400330042F2CB01B2E600BF4EC1010000400E40C3
S214003310A0091400B8003200B900340008B5074808
S2140033200321FFF7CDFD06480321FFF7C9FDBDE8E1
S214003330084004480321FFF7C3BD00BF4041050015
S214003340504107006041090037B5FEF7BDFD044651
S214003350FFF710FC022817D1194B1A481A491C44CB
S2140033609C42B4FBF1F188BF01F1FF310191FFF7F8
S214003370A7FD01991548FFF7A3FD0199144803B06E
S214003380BDE83040FFF79CBD124B134D0D48E218C8
S2140033909A42B2FBF5F588BF05F1FF352946FFF7DF
S2140033A08FFD0B482946FFF78BFD0C4B0C49074851
S2140033B01C449C42B4FBF1F188BF01F1FF31DEE70B
S2140033C0FF2C310140410500002D3101504107001E
S2140033D0604109007FF0FA0280F0FA02FFA14A0479
S2140033E000A24A0400F00F00013808B50B2879D86F
S2140033F0DFE800F006111B2F25397843515F6B6F0D
S214003400414BD3F8943003F00703023B052B76D8E4
S2140034103E4AD05C30E03C4BD3F8803003F00703E4
S214003420013B032B6DD83A4AF3E7374BD3F8843089
S21400343003F00703013B032B63D8364AE9E7324B18
S214003440D3F8883003F00703013B032B59D8324AE0
S214003450DFE72D4BD3F88C3003F00703013B032B3B
S2140034604FD82E4AD5E7284B1B6F13F0030340D0E6
S214003470012B14BF0120092008BD234BD3F85C3173
S21400348003F03003202B36D0302B36D0102B14BF51
S21400349001200720F0E71C4BD3F85C3103F44013FF
S2140034A0B3F5001F27D0B3F5401F26D0B3F5801F15
S2140034B0EDE7154BD3F8600100F00300431E022B26
S2140034C01DD800EB40000130D6E70F4BD3F864015F
S2140034D0F2E70D4BD3F8F03103F00703052B10D8B5
S2140034E00F4A96E70F4842F2CA2108F06CFB00200C
S2140034F0C2E70720C0E70420BEE70820BCE7052097
S214003500BAE70120B8E700BF00400E4036C201000F
S2140035103CC2010040C201003CC201003CC20100A6
S21400352044C201004EC1010038B5314B98420546F1
S2140035300BD01ED82F4B984207D02F4B9D4204D05D
S2140035402E4841F6DC0108F03EFB2846FFF74AFF0E
S214003550274B9D42044625D00DD8264B9D4211D0C0
S214003560254B9D421AD0254841F60B1108F02BFB3F
S2140035700DE0234BE2E7224B9D42F4D1214BD3F8DA
S214003580884002E01F4BD3F8804004F00704042C68
S21400359027D8DFE804F0240B0F171300194BD3F8D5
S2140035A08440F2E7174BD3F88C40EEE7BDE838408E
S2140035B008F003BBBDE83840FEF7F6BCBDE838406F
S2140035C008F0FEBAFEF780FC0E4B0446D3F8000166
S2140035D0C0F301600130FFF7B1FAB4FBF0F4204607
S2140035E038BD064841F65D1108F0EDFA0024F6E70E
S2140035F00400220002001E00030020004EC101004D
S2140036000500240000400E40012808B514BF1248EB
S2140036101248FFF7E7FE0138072816D8DFE800F063
S2140036201A1515071515040B0D4B186808BDBDE8CF
S2140036300840FEF795BCFEF747FC0A4BD3F800316E
S214003640C3F3042303FB0000F0E7074841F2D6610A
S21400365008F0B9FA0020E9E7B8003200B9003400F3
S2140036609410002000400E404EC1010038B500F412
S2140036707813B3F5E01F054600F0FC804CD8B3F590
S214003680602F00F0108123D8B3F5C02F00F0A18082
S2140036900DD8B3F5003F00F0A880B3F5802F00F0FA
S2140036A08D80002B00F0078141F6A96109E1B3F592
S2140036B0202F00F09480B3F5402F00F09C80B3F5E7
S2140036C0002FF1D1FEF700FCB14BD3F81C317AE0A5
S2140036D0B3F5B01F00F0AA800DD8B3F5901F00F028
S2140036E09280B3F5A01F00F09880B3F5801FDBD161
S2140036F0A84B18686CE0B3F5C01F00F0A580B3F5C2
S214003700D01FD1D1A448FFF70FFFA14B0446D3F832
S214003710280100F0030092E0B3F5401F00F0B480EB
S21400372024D8B3F5201F00F0BA800FD8B3F5001FD9
S21400373000F09E80B3F5101F00F0B380B3F5F01FC5
S214003740B2D19648BDE83840FFF7EEBEB3F5281F65
S21400375000F08480B3F5381FA6D19048FFF7E4FE4A
S2140037608B4BD3F82031C3F3012354E0B3F5601F2D
S21400377000F0CF8013D8B3F5501F00F0A780B3F544
S214003780581F00F0AC80B3F5481F8DD10020FFF71E
S2140037903BFF7F4BD3F85C3103F0030315E0B3F532
S2140037A0681F00F0D080B3F5781F7FF47DAFFEF77A
S2140037B08BFB0446284608F0C3FA42E0FEF784FB7B
S2140037C0734BD3F80C31C3F308230133B0FBF3F08B
S2140037D038BDFEF779FB6E4BD3F81831F3E7FEF7EA
S2140037E073FB6B4BD3F80431EDE7FEF76DFB684BCC
S2140037F0D3F80831E7E7FEF767FB654BD3F81431DB
S214003800C3F30423E1E76548FFF78EFE604BD3F869
S2140038102031C3F30343D840DAE76148FFF784FE5C
S2140038205B4BD3F8303103F00303F4E75B48FFF754
S2140038307BFE574B0446D3F8200100F00F00FFF73D
S2140038407DF9B4FBF0F0C3E75448FFF76DFE504B2C
S2140038500446D3F82001C0F30310F0E74F48FFF703
S21400386063FE4B4B0446D3F82001C0F30230E6E774
S214003870494867E74848FFF757FE454B0446D3F8E4
S2140038802801C0F30110DAE74348FFF74DFE404B2E
S2140038900446D3F82801C0F301300430CFE741488E
S2140038A050E73F484EE74048FFF79CFD07283FF4A7
S2140038B01FAF092803D1BDE83840FEF705BB41F22B
S2140038C09F613A4808F07FF9002081E70120FFF762
S2140038D09BFE2F4BD3F85C31C3F3014375E73448A6
S2140038E0FFF780FD0438062810D801A353F820F00F
S2140038F065390000753900000D390000F13600000A
S2140039000D3900000D390000613900004FF4B85140
S214003910D7E72848FFF766FD0438062810D801A325
S21400392053F820F065390000753900004139000071
S214003930F1360000413900004139000061390000CD
S21400394041F23271BDE71C48FFF74CFD02380928EA
S2140039501AD8DFE800F01115070F19191919050B09
S214003960164BC6E6BDE83840FEF7FABAFEF7F8FA98
S21400397040002DE7124BBCE6BDE83840FEF714BB0E
S214003980BDE8384008F019B941F2897199E700BFDF
S21400399000400E40941000200300200002001E008D
S2140039A0050024000400220006000E004EC101009F
S2140039B00A7B36000B7C38000C7F3A0098100020FB
S2140039C088100020014B1880704700BF4E11002061
S2140039D0014B1880704700BF4C110020022838B5F4
S2140039E00C4604D00D4842F6FC4108F0ECF80C4DAD
S2140039F06B6AC3F30113012B0DD064B1074842F67E
S214003A00175108F0E0F8074BD5F8902033EA020289
S214003A10FAD1012038BD4FF48003F5E74EC101000E
S214003A2000400E40FF3F473A05282DE9F047044680
S214003A300F4691461FD83E4B3E4A13F800A03E4B19
S214003A4013F80080F1B93D4B33F8103013660123AC
S214003A5003FA08F8D2F8903013EA080FFAD1B9F151
S214003A60000F61D00125334A05FA0AF5D2F89030E6
S214003A702B42FBD158E0BDE8F047314842F6C8314A
S214003A8008F0A1B82F4B022833F810604ED1536AC5
S214003A90C3F30113012B49D12B4BDB6B5B0504D41D
S214003AA0274842F6D73108F08EF8224A536A03F0C8
S214003AB00303032B05D1536A23F0300343F020039E
S214003AC05362224D1B4BA8441E664FEA8808D8F85E
S214003AD00030002BFBD0B9F1000F25D05544AD00C7
S214003AE02B68002BFCD0022C1ED1EFB1114B5B6A69
S214003AF003F00303032B03D000212046FFF76EFFDD
S214003B000F4842F65A4108F05EF8012200210220D2
S214003B10FFF78AFF0A4842F6E44108F054F8054BDE
S214003B201E662B68002BFCD0BDE8F0870027C8E790
S214003B304AC2010000400E4050C2010062C20100AD
S214003B404EC1010056C2010000300E408004F21043
S214003B5038B5FEF705FA0021044600F0C1F914480E
S214003B60FEF7A0FF012211460220FFF75DFF08F0D6
S214003B70D5F8FFF7D3FB0CB1FEF7EEFF0D4B022294
S214003B805A67FEF7A1F9FEF78DFFFEF7D7F905464F
S214003B90FEF7F0FF01462846FFF722F81CB9012180
S214003BA0204600F09DF9BDE83840FFF7CDBB00BFCA
S214003BB00148E80100400E4038B504461120FFF7E2
S214003BC011FC042804D11F4842F63C2107F0FBFFF5
S214003BD0012200210220FFF727FFE37A022B2AD8D2
S214003BE0194AD25C194D6B6A23F0030313436B62C8
S214003BF0FEF7B6F9164B2288984294BF082000209C
S214003C006B6A23F008031843A388686243EAC2235A
S214003C10EB622B6BE2881B0D1B051343628843EA9D
S214003C20C2232B63637A227A1B0143EA0233A27A09
S214003C3013436B6338BD034842F6502107F0C3FFB9
S214003C400022CFE74EC1010033C2010000400E4003
S214003C5040787D0170B505461120FFF7C3FB0228AA
S214003C6004D10F4842F6FA2107F0ADFF0D4E0E4B79
S214003C70B26B2C7813401C436B7844EAC324AB78B1
S214003C8044EA0364EB7844EA0324B36BA34205D00A
S214003C90002101220846FFF7C7FEB46370BD00BFCF
S214003CA04EC1010000400E4080E4FFF8034B586808
S214003CB0C0F30800003818BF0120704700ED00E090
S214003CC0034BD86B80F04000C0F38010704700BFF5
S214003CD000300E4038B542EA0323B3F5007F0546B0
S214003CE00C463ED019D8B3F5807F36D00AD883B3B9
S214003CF0012B21D01F4840F63C2107F064FF00222C
S214003D0013461FE040F201129342F3D11A4BD3F848
S214003D1024321A0EC3F3074314E0B3F5407F24D0D1
S214003D2040F20132934210D040F201229342E1D198
S214003D30114BD3F8283202E00F4BD3F82432C3F3EA
S214003D400722DBB22B60226038BD0B4BD3F828323B
S214003D50DFE7094BD3F81C32F1E7074BD3F81C32E8
S214003D60D7E7054BD3F82032E9E7034BD3F82032E8
S214003D70CFE700BFA8C201000081E00F08B5FFF73B
S214003D809FFF20B1024AD2F8C830002BFBD108BDF5
S214003D900000C6431A4B022810B5D3F830320C4642
S214003DA012D0032813D0012814BFDBB2C3F30723B5
S214003DB01B0323F47042ECB95AB140F6CB111148FC
S214003DC007F001FF002010BDC3F30743F0E71B0E0A
S214003DD0EEE70D49CA6E22F470421343CB6601200B
S214003DE0F1E70949D1F8EC2022F470421343C1F8F8
S214003DF0EC30F4E7002AF4D040F6D711DFE700BF36
S214003E000081E00FA8C2010000300E400378134A7C
S214003E10002B437870B514BF04260026002B837849
S214003E20946914BF02250025002B037924F03F0473
S214003E3043EA0403C47814BF08210021012C08BFFC
S214003E4043F0010333432B430B43936113684179DB
S214003E5023F4403343EA0143136070BD00300E4044
S214003E60F8B504460F46FFF72BFF78B3FFF786FF3B
S214003E70174B5B68C3F301439C4227D0154BD3F81E
S214003E800061FEF721F8022C05460FD1124BC6F34F
S214003E90042606FB00069E4204D9104840F26271D2
S214003EA007F091FE02212846FEF79AFEC4F10202B0
S214003EB010239340064A13610FB1FFF75FFF2CB93A
S214003EC021462846BDE8F840FEF78ABEF8BD00BF8A
S214003ED000300E4000400E40002D3101A8C2010007
S214003EE013B50246FFF7ECFEC8B152B90D4B01916F
S214003EF0D3F80041FDF7E8FFC4F30422019902FB62
S214003F000002094B1B7843B1084B9A4205D80220A1
S214003F1002B0BDE81040FFF7A3BF0020F8E702B0EC
S214003F2010BD00BF00400E40E8F40020002D310117
S214003F30174B4AF6E85210B5596B5A639A6FD40776
S214003F40FCD41B6C13F003031EBF124A0124C2F8F4
S214003F50B44A834216D00E4B9A6FD207FCD41A6C22
S214003F6022F0030202431A649A6F12F00102FBD198
S214003F700038084C18BF01200129C4F8B40A08BF4D
S214003F805A6303E010B9034BC3F8B40A10BD00BF70
S214003F9000300E400000C6432DE9F04FA0F5E16367
S214003FA089B00024B3F5966FCDE90244CDE9044408
S214003FB0CDE9064406468A46934605D940F6C531FD
S214003FC0554807F000FEA3E0B0F5E16F534B8CBFF9
S214003FD00122002249D1D3F81832C3F30721DBB2FD
S214003FE0079104934FF416754FF4966748E0BBF1BB
S214003FF0000F0ED0D9F85C2022F4FE4222F0020216
S214004000B6F5E16F42EA012218BF02200243C9F862
S2140040105C20BAF1000F26D020460021FFF7BAFE3A
S214004020044610B940F62241CAE701214046FFF790
S214004030B1FE044610B940F62A41C1E7384A536E2D
S214004040BD4238BF3D4623F4FF73E72D23F001033E
S21400405028BFE725B6F5E16F18BF43F0010343EA32
S2140040604503536654E0012452E0D3F81832190E83
S214004070C3F30743079104934FF496654FF4E16743
S214004080DFF89C90D9F84C400192C4F301742346A3
S21400409005A902A8FFF71EFED9F8EC30019AC3F373
S2140040A00128434606A903A8FFF714FE049BF01B4D
S2140040B0079FF91A4143B1FBF5F299182CBF01236B
S2140040C000238F421ED3EBB9069A039FD31B4343AC
S2140040D0B3FBF5F3FF182CBF01230023BA4211D31C
S2140040E083B9059B029AA3EB020C00FB0CF0B0FB15
S2140040F0F5F555192CBF01200020AB4202D300284D
S2140041003FF475AF044840F6134107F05CFD002409
S214004110204609B0BDE8F08FA8C201000081E00F7C
S21400412000300E40334A08B5136FD16C11F0010F02
S21400413003F0060344D0002B42D0132857D9143876
S21400414013288CBF102308232A49013BCA6C180386
S21400415022F47F4240EA03231343CB64264BCA6C07
S2140041601B88C2F303222833013202EB820003EBE2
S2140041705303B3FBF0F3C86C013B072B28BF0723A0
S21400418020F0EE6040EA036343F48013CB641B4BDD
S214004190B3F90030002B12DB03F12800C0F34E0306
S2140041A00344500800EB4202B3FBF2F20B6D072A01
S2140041B028BF072223F0700343EA02120A6508BDEF
S2140041C0D16C01F00101194304D109280FD90A382E
S2140041D00928B6E7D26CD20702D50BB92728B0E774
S2140041E0074840F6684107F0EEFC0023ACE70423DE
S2140041F0AAE700BF00300E40D4280020D6280020B2
S214004200A8C201000C4BD3F8803910B5044633B968
S214004210012804D9094840F6864107F0D4FC084A2C
S214004220136F23F0070323431367064BBDE81040C4
S2140042301888FFF777BF00BF0000C643A8C201007A
S21400424000300E40D228002038B50389C82B04461B
S21400425004D9514840F66A2107F0B5FCA2882389A4
S2140042609A4204D94C4840F66B2107F0ACFCB4F9EE
S2140042700C30C82B04DD484840F66C2107F0A3FC40
S2140042806378012B55D1A388C82B04D94FF4276136
S214004290414807F098FCE28842F210739A4204D92B
S2140042A03D4840F67D2107F08EFCE3884A2B48D92E
S2140042B0B3F5FA7F47D340F6C312934294BF4FF04C
S2140042C000524FF040523549B4F90C00CB6C23F045
S2140042D0405323F001030028A8BF43F00103134313
S2140042E0CB64D1F8EC30A28843F44073C1F8EC30CC
S2140042F02B4B1A80CB6E43F08073CB66294BD3F8DA
S214004300800900B10420FFF77DFF274B2189198023
S214004310264BB4F90C20A0881A80FFF703FFA37B76
S214004320A3B1012B23D01C4840F67C1107F04BFCB0
S2140043300FE0022BAFD1A3880A2BACD940F675212B
S214004340A6E70022BFE74FF08052BCE7134B184A9F
S2140043509A65012260881146FFF71EFE054648B999
S2140043600D4840F6B42107F02EFC284638BD0B4B0E
S214004370104AEDE7094AD36B43F48063D363607851
S214004380FFF7D6FDA37AA3F1200253425341054A14
S214004390C2F89437E9E700BFA8C2010000300E401B
S2140043A0D22800200000C643D4280020D6280020AB
S2140043B077402057372110B7082838B504460D46F1
S2140043C004D84FF6FF73CB40DB0704D4084840F20E
S2140043D02D4107F0F8FB30230C2013FB040000F1FE
S2140043E08C40012100F5082001FA05F5056038BD6E
S2140043F0FEC00100082838B504460D4604D84FF61E
S214004400FF73CB40DB0704D4084840F2FE3107F0C8
S214004410DAFB30230C2013FB040000F18840012156
S21400442000F5082001FA05F5056038BDFEC001005C
S214004430072810B5044603D90648522107F0C3FBE7
S214004440054AD2F8443423F003032343C2F8443425
S21400445010BD00BFF3C20100008008400828F8B570
S21400446005460C4616461F4604D84FF6FF73CB404B
S214004470DB0704D419484FF4B07107F0A4FB26B14B
S21400448021462846CFB1FFF797FF05EB4503072CDB
S2140044904FEA03134FF00F0112D8A00006FA00F2FD
S2140044A081400F48184407F06DFCAEB921462846F7
S2140044B077B1BDE8F840FFF77FBFFFF79BFFE4E763
S2140044C0A4F10800800006FA00F281400548E9E7FA
S2140044D0BDE8F840FFF78EBFF8BD00BFF3C201008D
S2140044E00480084008800840074B0422C3F8802058
S2140044F0BFF34F8FBFF36F8F044B0021D9664FF485
S214004500EA401962FEF7A6BB00E100E0002000408A
S214004510172838B505460C4603DD0848772107F00E
S21400452052FB1F2D84F0010403D90548912107F0A2
S2140045304AFB044B2B449B001C6038BD3FC3010064
S2140045408BC30100A001811010B5044618B91B48A2
S214004550912107F038FB23781B0613F0604F03D039
S2140045601648922107F02FFBE378072B03D9134850
S214004570A32107F028FB01214FF4EA40FEF76AFB6F
S214004580B4F8013022785BBA9BB243EA02630C4A65
S214004590136000231362D36253634FF00043D36665
S2140045A04FF0FF339366074A0421C2F88011E37880
S2140045B05B01DBB282F80233116010BD3FC301001D
S2140045C00020004000E100E02DE9F041C3B20126E2
S2140045D0172805460C46904606FA03F603DD3A48C9
S2140045E0EC2107F0F0FA1CB93748ED2107F0EBFA9A
S2140045F0236823F47C1323F00F031BB13248F22107
S21400460007F0E1FAA37A1B0413F47C0F04D02E48BB
S21400461040F2091107F0D7FAE37A1B0513F07E6F14
S21400462004D0294840F20B1107F0CDFA237B5B0536
S21400463013F0FE5F04D0244840F20D1107F0C3FAD1
S214004640224F637BBE66302000FB05702268C0F8F0
S2140046508020C0F88830E37AA27A1B0543EA02433A
S214004660227B43EA425328F00302C0F88430C0F8A5
S214004670982007F071FBFB6E3343FB66237A13B179
S2140046807B6B33437B63637A13B1FB6A3343FB6212
S2140046900E4B1A68237923B1DB431B0263F47F4376
S2140046A01A4063790BB142EA0322A3790BB122EADE
S2140046B00302E3791A43054B1A60054A9662DE63E5
S2140046C0BDE8F04107F04EBB3FC3010000200040AC
S2140046D00020004410B5C3B20124172804FA03F4DE
S2140046E004DD094840F2971107F06DFA07F034FB35
S2140046F0064AD36E23EA0403D366054B1C62BDE864
S214004700104007F02FBB00BF3FC301000020004051
S2140047100020004410B5C3B20124172804FA03F49D
S21400472004DD0B4840F2B51107F04DFA07F014FB14
S214004730084B1A6A224209D19B6A34EA03030CBF6B
S2140047400124002407F00EFB204610BD0024F9E7E4
S2140047503FC3010000200040022838B504460D463D
S21400476003D911484C2107F02EFA6B791F2B03D979
S2140047700D484F2107F027FAAB786A789B0143EA89
S21400478082032A781343EA7843EA02132A7943EA33
S214004790C2236A7943EA0233AA79043443EA4243DD
S2140047A02401024A135138BDD6C30100002006403A
S2140047B0014B1860704700BF0000C4424278017980
S2140047C00378002A827870B514BF04260026002AD3
S2140047D0C27814BF10250025002A42794FEA02321B
S2140047E042EA012242EA0302837942EA8332C3792B
S2140047F014BF20240024002B037A42EA034343EA32
S2140048000603427A43EA050314BF4FF40041002131
S2140048102343002A14BF4FF4003200220B431343F5
S214004820014A136070BD00BF002006402DE9F0412C
S21400483080460C461F46164622B934484FF4A171EE
S21400484007F0C1F93CB9324B98450CBF31483248A5
S214004850FEF70CFF0446402F4BD009D8A7B1202FF7
S2140048603DD0BDE8F041294840F2891107F0ABB9C8
S214004870602FF6D1B6EB940F04D9244840F283118A
S21400488007F0A1F9042108E0B6EB141F04D91F486D
S2140048904FF4BA7107F097F910214E4371081F4D77
S2140048A001EB4414B4FBF6F6203EB5EBC60F4FEA18
S2140048B0C60404D215484FF4D07107F084F9D8F82E
S2140048C0003023F06003C8F80030D8F800302C40E1
S2140048D01F43C8F80070C8F81440BDE8F081B6EB76
S2140048E0D40F04D9094840F2791107F06CF9082171
S2140048F0D3E70625B4FBF5F3B34204D203484FF4DE
S214004900BF7107F060F92946C7E700BF22C401005F
S214004910000801405041070040410500F8FF7F00B5
S21400492038B5164B984204460D4620D003F58063F2
S21400493098421CD003F58063984218D003F5806334
S214004940984214D003F58063984210D003F5806334
S21400495098420CD003F53053984208D003F5806394
S214004960984204D006484FF4337107F02CF9EB4315
S2140049705B0003F00A03E360E56038BD0000014019
S21400498022C4010038B5254B254D984204461ED05A
S214004990A8421CD003F50063984218D003F5806344
S2140049A0984214D003F58063984210D003F58063D4
S2140049B098420CD003F53053984208D003F5806334
S2140049C0984204D0174840F2424107F0FCF840F6FF
S2140049D0AA63E36041F20502002323606260124A84
S2140049E0A3606361E364A2640C4A2366944263672F
S2140049F0A367E36703D002F50062944200D1236503
S214004A000023AC42A36506D0084A944203D002F5C0
S214004A108062944200D1E36538BD00BF00000140CB
S214004A200004014022C40100F9FF0100000C01400F
S214004A3038B5314B984204460D4620D003F58063C6
S214004A4098421CD003F58063984218D003F5806323
S214004A50984214D003F58063984210D003F5806323
S214004A6098420CD003F53053984208D003F5806383
S214004A70984204D0214840F2FD2107F0A4F82046D1
S214004A80FFF780FFAB7C1BB1236843F080432360B5
S214004A90EB7C1BB12B7D43F08003A3652A8A6B7BDE
S214004AA01343EA89134363602B7BD5E90112204642
S214004AB0FFF7BCFE6B7D1BB1236843F48033236095
S214004AC0AB7D1BB1236843F400432360EB7D2A7E55
S214004AD01B07120502F4E00203F0E04313432366CB
S214004AE0636F23F030036367626F6B7E1343636705
S214004AF02B78E36038BD00BF0000014022C40100EF
S214004B002DE9F047374FDDE90884064615469946F5
S214004B108A4641B9082323704FF4D963A360324B09
S214004B206760E360FEE75AB1531E134208D00823BD
S214004B30237040F2CB63A3602B4B6760E360FEE715
S214004B4007F00AF9002D08BF04254D4538BF4D462D
S214004B50D6F808E06B1E13EA0E0FC5F1000202EA53
S214004B600E0208BF0025154409F1FF33AA4413EAD4
S214004B700A0FC9F1000202EA0A0208BF4FF0000954
S214004B8002EB090372680132A2EB0E01A3EB0E0ED4
S214004B907145844615491AD2B8F1000F02D09B1A07
S214004BA0C8F80030162540F22273C4E90231257099
S214004BB06760604607F0D6F840F2D763A3600A4BFA
S214004BC025706760E36000252846BDE8F087B3607F
S214004BD0002323704FF4E563C4E90231676007F0F1
S214004BE0C1F8F1E76FC40100E6C40100CEC40100BD
S214004BF030B50C4685B011461D461BB9039207F02A
S214004C00D8F803990648019500230093042201234F
S214004C10002C18BF2046FFF773FF05B030BD00BF5D
S214004C209C1000201FB50C4B1B78012B0AD1FFF7F8
S214004C303DF8002814BF6FF005004FF0FF3005B0B8
S214004C405DF804FB684600F027FA9DF8000000387F
S214004C5018BF01204042F2E7EC180120084B1878F4
S214004C6001280AD1074B1B78012B07D1064B1B786E
S214004C70002B14BF0320022070470020704700BF9F
S214004C80E9180120EC180120ED1801201FB5FFF7E8
S214004C900DF848B9074B1B78012B02D0684600F088
S214004CA08BF94FF0FF3001E06FF0050005B05DF8BE
S214004CB004FB00BFEC18012030B585B00546FEF7B2
S214004CC0F5FF18B10024204605B030BDB5B91C204C
S214004CD003F068FD04460028F4D001231749037644
S214004CE06A46204600F0E4FB9DF80030EBB1237ED8
S214004CF0012BE7D1204603F05DFDE3E7AC686CB915
S214004D001C2003F04FFD04460028DBD00123237649
S214004D1029680A4B002908BF1946E1E7EB681B2BF8
S214004D20D0D914F00303F2D0CCE72DB16B68DB07C3
S214004D3002D501236376C6E70023FBE7FBC4010028
S214004D407FB504460E461546FEF7B0FF18B10024A0
S214004D50204604B070BD002CF9D0C5B9182003F069
S214004D6021FD04460028F2D00123144903746B4643
S214004D703246204600F09CFE9DF80030002BE7D01F
S214004D80237C012BE3D1204603F014FDDFE7AC685B
S214004D906CB9182003F006FD04460028D7D001237E
S214004DA023742968054B002908BF1946DFE7EB681E
S214004DB0172BCCD914F00303F2D0C8E701C50100C5
S214004DC02DE9F04F8FB081468A461646FEF76EFFF5
S214004DD008B100243FE0B9F1000FFAD0002E3ED112
S214004DE0C82003F0DFFC04460028F2D0012680F835
S214004DF0C0604FF4806003F0D5FC05460028E8D07C
S214004E00414F84F8C1604FF480681F260DF1280BCF
S214004E1000223E495B4604F1980000F0D7FA9DF860
S214004E202820002A50D10723CDE90623384BCDF899
S214004E3020B003EA9803CDE90223CDE904225346C5
S214004E40CDE900654A463946204601F00FF99DF83F
S214004E502830002B38D120460FB0BDE8F08FB4685C
S214004E60DCB9C82003F09EFC04460028B1D001231C
S214004E7084F8C030D6F81480B8F1000F2CD14FF467
S214004E80806003F08FFC054670B994F8C030012BA3
S214004E909FD1204603F08EFC9BE7F368C72B98D97A
S214004EA014F00303E4D094E7012384F8C1304FF4F0
S214004EB080683768144BB669002F08BF1F46FEB1DE
S214004EC0731C1FD0372E17DD94F8C130012BDCD1B0
S214004ED0284603F06FFCD8E735694DB9404603F025
S214004EE061FC05460028D0D0012384F8C130E0E7F5
S214004EF015F00703F9D0C8E7C6F13706F6B285E71E
S214004F001F2683E7402681E70BC5010015C5010073
S214004F10FEFFFF3F034B1B78012B06BF024B1868B2
S214004F2000207047EC180120982800202DE9F04159
S214004F301B4B1B78012B00D0FEE71A4B1F7867BB74
S214004F4006F00AFF184D194E95F80080044600F04A
S214004F5071FD4028287012D0154AB8F1400F52F85B
S214004F603030336001D1AFF30080124B32681B68DB
S214004F709A4208D12046BDE8F04106F0F3BE3760FD
S214004F80AFF3008002E02B78402BF9D001F0D3FB82
S214004F90204606F0E7FEBFF36F8FBDE8F08100BF46
S214004FA0EC180120ED180120EB1801209C280020A9
S214004FB0982600209828002070B5044608B906F008
S214004FC0F8FE244B1E78012E09D013232370224BA3
S214004FD0636040F2FE33A360204BE360FEE7204BA5
S214004FE01B884BB9092323701B4B636040F20943AF
S214004FF0A3601A4BE360FEE71A4D2B784BB11F23D4
S2140050002370154B636040F20C43A360134BE360C0
S214005010FEE706F0AAFE48B11F2323700E4B63601E
S21400502040F20F43A3600D4BE360FEE700F002FD85
S2140050300D4B0E4A18700E4B2E7018700D4B53F811
S214005040303013600C4A136001F036FBBDE8704048
S21400505006F0AFBEE918012028C50100A8C501006A
S214005060DA280020EC180120EB1801209C280020EC
S214005070EA18012098260020982800200023054AD8
S21400508019460133402BC2E9001102F10802F8D19B
S214005090704700BF9826002070B5044608B906F091
S2140050A088FE564D6A68D2B12B68554E4BB92346DA
S2140050B0296B54489200FFF79BFD306023780BB1B4
S2140050C070BD3360504B32681A60504A6B6813608C
S2140050D04F49504A9B0013600A6813440B602A89A4
S2140050E0BAB10C262346296B4B487243FFF780FD66
S2140050F04A4B18602378002BE2D1494B494A186086
S2140051002B8913804249484A734313600A68134444
S2140051100B60464E6B6B336001F080FB02F08EFF37
S214005120054648B101232370414B63604FF4DA73A0
S214005130A360404BE360C3E702F0FEFF36683E4BD9
S214005140B0420246186009D209232370384B6360C8
S2140051504FF4DD73A360374BE360FEE73CD02B468D
S2140051600020012103F064F97043344BB6F57A7FD2
S214005170186008D9324600230020012103F058F9B0
S2140051804FF47A7545432E4B1D602E4B0021197047
S2140051902D4B19702D4B19602D4B19602D4B197026
S2140051A02D4B1970194B1A68C2B92C4B00221A7075
S2140051B000F038FCFFF762FF1A4B1B88B3B9204695
S2140051C000F042FF2378002B7FF47AAF06F0E7FE6C
S2140051D0234B01221A7073E72846C6E70A4B186865
S2140051E00028E2D0920007F032FDDEE7204600F00D
S2140051F02DF92378002BE2D062E700BFB010002024
S2140052005C26002083C5010060260020642600205E
S214005210582600206826002096C501006C2600202F
S21400522070260020D828002074260020782600202B
S21400523028C50100B0C50100842600208026002075
S2140052407C260020EC180120ED180120982800206C
S2140052509C280020EA180120EB180120EE180120F7
S214005260E918012090F82710094B53F83120C26046
S21400527010B532B9026143F8310003EBC103586040
S21400528010BD00240461106143F83100F8E700BF48
S2140052909826002090F82720094B53F8321010B5B6
S2140052A0D40031B9C0E9031143F8320023445860F2
S2140052B010BD23440022C2605A680261D060F6E73F
S2140052C09826002010B5044690F8270000F0C2FB90
S2140052D0074B94F827201B789A42204603D1BDE856
S2140052E01040FFF7D7BFBDE81040FFF7BBBF00BFB9
S2140052F0EA18012010B50446D4E9033290F82700D6
S21400530082B90D4953B941F8303001EBC0014B600A
S21400531000F0B6FB0023C4E9033310BD1A6141F860
S2140053203030F7E7D36023B9034B03EBC00042608D
S214005330F0E71A61EEE700BF98260020F7B50446AE
S2140053400D4611B302F0F8FE114B1A680026571EE0
S21400535046F1FF31E5FB00713346384603F068F846
S214005360CDE9006601460B4A234604F1440007F0E7
S214005370F5FB08B106F01DFD0323204684F8263011
S21400538003B0BDE8F040FFF7B5BF0223F5E700BF66
S214005390782600204DC1000038B50B4D044628681D
S2140053A0002380F8241080F825301146FFF7C6FF4A
S2140053B034B12968201D0C62BDE8384006F0F4BD03
S2140053C02B681C6238BD00BF982800202DE9F047E6
S2140053D0054692461C460BB906F0EBFCFEF766FC4B
S2140053E0DFF86480164F064638B120232370552315
S2140053F0C4E90237C4F80480FEE73DB90A232370E7
S2140054005823C4E90237C4F80480FEE706F0A4FC7B
S214005410102231468146284607F019FC094B2B60BE
S214005420281DC5F80CA006F0BBFD484606F09AFC01
S21400543070232670C4E90237C4F80480BDE8F087FC
S21400544012C60100464C4147B7C50100134BF0B5E4
S2140054501C68134B1E880025721E04F10C0192B2C4
S2140054602B46AFB2BA4211D80C214A43A118A3501A
S2140054700C4A4B600B81D3809680146003700A4BF5
S21400548043605D238360094BC360F0BD41E90313AD
S21400549021F8043C01350C31E3E700BF70260020FC
S2140054A0D8280020902600201FC6010079C60100DB
S2140054B02DE9F843054614460AB906F07AFCFEF7CD
S2140054C0F5FBDFF86480164F064638B120232370BC
S2140054D05223C4E90237C4F80480FEE73DB90A2324
S2140054E023705523C4E90237C4F80480FEE706F0AB
S2140054F033FC182231468146284607F0A8FB28468A
S214005500084B40F8043B06F04BFD484606F02AFCE4
S2140055106C232670C4E90237C4F80480BDE8F8831B
S21400552007C701004D55545888C601002DE9F74FAE
S2140055300C9C0546894616460CB906F03AFCFEF762
S214005540B5FB48B120232370724B636040F23313DF
S214005550A360714BE360FEE74DB90A2323706D4BE1
S21400556063604FF49B73A3606B4BE360FEE7C6F388
S2140055700E034BB108232370664B636040F2391369
S214005580A360654BE360FEE72A68644B9A4209D045
S2140055900C2323705F4B636040F23D13A3605E4BA9
S2140055A0E360FEE736B2002E0CDB06F0DEFB48B109
S2140055B01F232370574B63604FF4A073A360564BB2
S2140055C0E360FEE7564B93F800B0BBF1010F16D12F
S2140055D006F0C2FB2F7DDFF850818246CFB9D8F89F
S2140055E0003085F814B0DA6A2B61EA60DD6206F0F6
S2140055F0B9FB484B636027704FF4AA7305E002239B
S2140056002370444B636040F24513A360424BE36053
S21400561013E02B69D8F8002093421CD1FF2FDFF847
S214005620F4803D4E0CD106F09DFB1E232370C4F87B
S214005630048040F25D13C4E9023603B0BDE8F08F83
S21400564001372F7506F08EFB23232370C4F80480E1
S21400565040F26913EFE7002E08DA06F083FB1D23FD
S21400566023702C4B63604FF4BB73CEE72D4909784B
S21400567041B106F077FB2D232370264B63604FF471
S214005680C173C2E792F8271093F827208A4202D9FE
S214005690184600F0C5FD4A4604212846FFF77CFE62
S2140056A0504606F05FFBFFF741FC06F055FBD8F8C6
S2140056B0003093F82530032B26D8DFE803F00210DD
S2140056C01E1700232370134B63604FF4D073A36040
S2140056D0114BE36003B0BDE8F04F06F043BB212357
S2140056E023700C4B63604FF4D573F0E722232370CE
S2140056F0084B63604FF4DA73E9E731232370054BF8
S21400570063604FF4DF73E2E7019006F052FB019806
S214005710E0E700BF88C60100F0C601004D555458AA
S214005720EC180120ED18012098280020044B036097
S2140057300023C0E903330375043006F031BC00BF14
S2140057404E4F4E452DE9F84305460F4614460AB916
S21400575006F02FFBFEF7AAFA064640B12023237078
S214005760474B6360A523A360464BE360FEE745B95D
S2140057700A232370424B6360A823A360414BE36077
S214005780FEE72A68404B9A4208D00C2323703C4B15
S2140057906360AB23A3603B4BE360FEE73B4B1B78A9
S2140057A0012B0BD002232370354B6360AF23A3601D
S2140057B0344BE36007463846BDE8F88306F0CCFA7B
S2140057C0804667B1012F2ED006F0CCFA082323704E
S2140057D02B4B6360F323A3602A4BE360FEE76B6802
S2140057E0DFF89C90274E93B9286910B1294606F039
S2140057F022FD2846FFF79AFF404606F0B3FA00233C
S2140058002370C4F80490C323C4E90236D3E706F035
S214005810A9FA2E232370C4F80490C623F4E70222C4
S214005820002106F00BFC6868B7B201360028F6D1F6
S2140058302E699EB12946304606F0FDFC96F82810E3
S21400584096F827308B4209D0304606F000FD81429C
S21400585028BF0146C9B2304600F0E2FC2846FFF7F2
S21400586065FF404606F07EFAFFF760FB00232370D4
S214005870034B6360EE23A360024BE3609BE700BF2D
S21400588088C60100FCC601004D555458EC1801208E
S2140058902DE9F04F054685B0894614460AB906F04C
S2140058A088FAFEF703FA594F594E38B12023237071
S2140058B040F25723C4E902366760FEE73DB90A2383
